:020000040000FA
:100000000C9495050C94B7240C9490240C94FD2525
:100010000C94FD250C94FD250C94BD050C949223A5
:100020000C94BD050C94BD050C94BD050C94BD0548
:100030000C94BD050C94BD050C94BD050C94BD0538
:100040000C9446240C94BD050C9414240C94EE23BB
:100050000C94BD050C94BD050C94BD050C94BD0518
:100060000C94DE240C94BD0507634236B79BD8A7D9
:100070001A39685618AEBAAB558C1D3CB7CC5763CD
:10008000BD6DEDFD753EF6177231BF000000803F7B
:1000900008000000BE922449123EABAAAA2ABECD97
:1000A000CCCC4C3E00000080BEABAAAAAA3E000009
:1000B0000000BF000000803F000000000008417801
:1000C000D3BB4387D1133D190E3CC3BD4282AD2B38
:1000D0003E68EC8276BED98FE1A93E4C80EFFFBE30
:1000E00001C4FF7F3F000000000052756E2054697C
:1000F0006D65202020203A200054656D7065726186
:1001000074757265203A2000506F74656E74696F63
:100110002F4C44523A200054616374205377697421
:100120006368203A2000456E636F6465722020206A
:1001300020203A20005247420042757A7A657200C8
:100140004D5831353038007E306D79335B5F707FCC
:100150007B771F0D3D4F47000000000000000000AE
:10016000000000000000000000000000000000008F
:10017000000000800180007E306D79335B5F707F0E
:100180007B00000000000000771F0D3D4F47003747
:100190000000000E000000670000000000000000EA
:1001A0000000000000000800771F0D3D4F4700379A
:1001B0000000000E00151D67000000000000000098
:1001C000000000000000004D41583732313900482E
:1001D0004330350053494D3830306C0041726475FE
:1001E000696E6F20547261696E657220443100003F
:1001F000000000240027002A00000000080002017F
:1002000000000304070000000000000000020000DE
:100210000000250028002B00010204081020408067
:100220000102040810200102040810200000000050
:100230002300260029000404040404040404020228
:1002400002020202030303030303E00003020304A8
:10025000030404060B00FE07FE08FF013E028108AE
:10026000BE200500A203210739A363500222079B89
:10027000B623B104230B2DAAA732289541A9002447
:100280000E4D9E2B5B2A4AB6254A658B00250E3DF6
:10029000A26750125312294A222500260C3DA2477C
:1002A000AAD42A89142901270519B7632808CB9EE7
:1002B0002B29752B2909CB9E232B7529012A0A2D61
:1002C000AAAB52599A22002B0A2DA62B8C06298CF8
:1002D000002C08A29A634814002D058BAE632E06ED
:1002E00012A363082F0C559AB3166661166661084F
:1002F000300C3DA267C9A42599B4640131093DA21F
:100300002B1A3B0D02320A3DA267C9C2AC6D1033F5
:100310000B3DA267C9C248D59205340C3DA22F936C
:1003200092523268D900350B3DA2E338A4A1962C35
:1003300000360C3DA267098724B3250B00370A3D20
:10034000A263106BC51200380C3DA267C9B464C922
:10035000B46401390C3DA267C96CC910260B003A80
:10036000082AA3638886003B09BA9A6388864401F9
:100370003C07BCA22F6A6C3D081DAA635007013ED2
:1003800008BCA2236C6A033F0B3DA267C9C2AC0E36
:100390004500400D3DA267C994214994211D0241A9
:1003A0000C3DA22B4BA2A4360C9916420D3DA26324
:1003B00048326D50326D5000430A3DA267C9C4B641
:1003C0006401440A3DA26348326F8302450B3DA29B
:1003D000E3180E49180E02460A3DA2E3180E4958CA
:1003E00004470B3DA267C9C468D39205480A3DA2E1
:1003F00023B30D43660B490A3DA26390C24E8300AE
:100400004A093DA2B351D392054B0C3DA2239392CE
:10041000929644952C4C083DA223EC71104D0C3D56
:10042000A2235B964449345B004E0B3DA2239B9470
:1004300044DA6C014F0A3DA267C9BC250B00500C81
:100440003DA26348326D50C22200510A459E67C9E1
:10045000BC54D600520C3DA26348326D50325B0052
:10046000530B3DA267C9D4554B160054093DA263F6
:1004700090C29E0055093DA223F32D5900560C3D14
:10048000A223B325A5240B2300570A3DA2237349B9
:1004900094E416580B3DA223D3925AA5A605590AF7
:1004A0003DA223B325B5B0045A0A3DA26310B38E12
:1004B00083005B084A9F63E98B005C0CD59A234C50
:1004C000C3344CC3340C5D08CA9E43E9CB005E08BC
:1004D0001DB22B4B6A015F060E9AE300600692BACA
:1004E000230A61092DA267D04C8A12620C3DA22317
:1004F0000C8724B30D0A0063092DA267C9C47408D0
:10050000640A3DA2B33268B66408650A2DA267C9C1
:1005100086211D026609BCA24B89A6AC09670C3D69
:100520009A67D06CC910260B00680A3DA2230C877D
:1005300024730B6908BBA227945A066A094B9A2BAD
:10054000943A2D006B0B3DA2232C25A5A992056C96
:1005500007BBA243EA656D0C2DA263482A4AA22478
:100560004A016E092DA2233169B6006F092DA267D9
:10057000C96CC902700C3D9A634832DBA08421002B
:10058000710A3D9A67D06CC9101672092DA22331E9
:1005900089450073092DA267500F0A007409BCA297
:1005A000278BA6AC2875092DA22373529400760BD5
:1005B0002DA223D39252924500770C2DA223499469
:1005C0004449942E00780A2DA2234B6A955A00794B
:1005D0000B3D9A23734B863059007A092DA263D0C4
:1005E000DA06017B0ADB9A2B895AB2A82D7C0649D0
:1005F0009FE3017D0BDB9A238BDA92A825027E060E
:1006000015AEC7057F0500A203800500A203810582
:1006100000A20382071A9E275100830B5D9A4F0A9E
:100620006B5BD8490384081C9EA745490085060DCD
:10063000A223298609ABAA2759A20A008709ABAAD7
:100640002759922501880693BAA701890E46A26709
:10065000585A345149949E92048A0C4DA2A7962D63
:1006600099BA6AC9028B0722A24789028C0E3DA261
:100670006750A2244A9452920D018D0500A2038E68
:100680000500A2038F0500A203900500A2039107B5
:100690001AB347490092071AB327510093089CB236
:1006A00027515A0094089CB2A745490095082DA6E9
:1006B000E7F0650196058BAE6397060EAEE30098F2
:1006C0000615BAC70599091EB263482A4B329A0B20
:1006D00045A2A79623837A50009B0822A2234A149E
:1006E000009C0A2DA2A78B322459229D0500A2034B
:1006F0009E0500A2039F0B4DA2A79CD9925A5802B7
:10070000A00500A203A107B9A3231904A20D3D9ED1
:100710002B5B2A4A9464431401A30C45A247AA8484
:1007200053581B1400A40B2DA2234BA6245AB2002D
:10073000A50D3DA2234B2A83140D521801A608498A
:100740009F63488600A70F559E67C99248897A9192
:10075000922C5900A8068BBA2309A90C3DA2638DDF
:10076000142D51B26402AA0AB4AE6788A4641C02B4
:10077000AB0925A2279292A801AC071DA663100B16
:10078000AD060DAE6310AE0B35A6634D242599144E
:1007900005AF058BBA63B009A4B24789A44401B17F
:1007A0000B35A22B8C06298C0601B208A3B6434B4D
:1007B0009201B308ABB2434BA405B40713BB67481F
:1007C00000B50E3D9A234AA2244AA264114300B602
:1007D0001045A267501225512A439444499404B706
:1007E0000612AB6308B8089B9A63191200B907A3F5
:1007F000B643AA0CBA0AB4AE4789A4441D02BB0989
:1008000025A2236A89A404BC0F4EA243AD0D49580A
:10081000891225591300BD0D4EA243AD0D49184E46
:1008200099160EBE104EA2430EA54AA284499428E2
:10083000C99A00BF0B3DA22B87B262962C00C00E56
:100840004DA2270DB3244A6AC3906901C10D4DA280
:10085000AF982551521B864C0BC20E4DA22B4B72EA
:10086000244B6AC3906901C30D4DA2C7AD1225B5D3
:1008700061C8B400C40E4DA2A78E644994D48621E9
:10088000D302C50D4DA22B4BB24A4D1B864C0BC655
:100890000E3DA26750A2241A9252122503C70B4D97
:1008A0009A67C9C4B664AB01C80D4DA2278D8631C5
:1008B0001C92301C04C90C4DA2AF348CE19084E131
:1008C00020CA0E4DA22B4B92610C87240C0701CB42
:1008D0000C4DA2A73C8CE19084E120CC0B4DA227CB
:1008E0008D0629EC3408CD0A4DA2AF344861A741EA
:1008F000CE0C4DA22B4BE2410A9B0601CF0A4DA222
:10090000A73C4861A741D00D3DA267AA4443524A83
:10091000A26401D10C4DA2C7259B9444DA6C01D28C
:100920000B4DA227CD96CC5BB200D30A4DA2AFB639
:1009300064DE9205D40C4DA22B4B7260C9DC92058B
:10094000D50B4DA2C769C9BC250B00D60B4DA2A77C
:100950000E2C99B76401D70A2DA6234B6A955A002D
:10096000D80C3DA267C9A42599B46401D90A4DA247
:10097000278D32DF9205DA0A4DA2AF94F9962C004A
:10098000DB0B4DA22B4BE2CC5BB200DC0A4DA2A7E5
:100990009CF9962C00DD0B4DA2AF94D9925A5802C7
:1009A000DE0C3DA2231C924C1B943004DF0E4D9EA6
:1009B0004B8A34298992CCA28400E00C45A22BCD2D
:1009C000814133294A00E10B45A2AF8E0C9A49516F
:1009D00002E20C45A22B4B7260D04C8A12E30B450D
:1009E000A2C71D183493A204E40B3DA2A70E0C9AD3
:1009F000495102E50C45A22B4BB26CD04C8A12E651
:100A00000B2DA267A92843920D01E70B3D9A67C9F8
:100A1000C47488B20CE80C45A227CD91251B8674BE
:100A200008E90C45A2AF8E2CD930A44300EA0D454D
:100A3000A22B4B7260C986211D02EB0C3DA2A70EB2
:100A40002CD930A44300EC09C3A2230BA59601EDD9
:100A500009C3A22B09A59601EE08C3A2A74D6A19E6
:100A6000EF09BBA223C9A49601F00C45A24753A3EA
:100A700041B3250B00F10A45A2C7393169B600F22E
:100A80000C45A227CD9125B3250B00F30B45A2AF52
:100A90008E2C992D5900F40C45A22B4B7260C96C19
:100AA000C902F50B45A2C71D58325BB200F60B3DDB
:100AB000A2A70E2C992D5900F70A2DA62B07061D6B
:100AC0008800F80B2DA2678996644A1600F90B4539
:100AD000A227CD81CC495102FA0A45A2AF0E644E3D
:100AE0008A12FB0B45A22B4BE2CC495102FC0A3D7A
:100AF000A2A79C39294A00FD0D559AAF0E646EC914
:100B000010260B00FE0D4D9A230C8724B30D4A18B6
:100B100002FF0C4D9AA79CB92543982C00000000B9
:100B200004FFFF00000075265B2B11241FBECFEFD2
:100B3000D8E0DEBFCDBF27E0AAE4B3E001C01D923C
:100B4000AA30B207E1F713E0A0E0B1E0E0E3F4E699
:100B500002C005900D92AA34B107D9F715E0C4E997
:100B6000D5E004C02197FE010E94F82FC339D107B8
:100B7000C9F70E94FB280C940B320C9400006623EA
:100B800029F06A3019F0862F90E008958FEF9FEFDB
:100B90000895CF92DF92EF92FF920F931F93CF931E
:100BA000DF93EC01842F8770E1E0F0E0082E01C0B4
:100BB000EE0F0A94EAF73E2F7E0199E7E90EF11C49
:100BC000D7019C9110E0923018F41E2F913029F13A
:100BD00050E0487FE8ADF9ADC880D980D601509685
:100BE0009C91949F6001959FD00C11246C0D7D2DDC
:100BF000711DDF01A60FB71F011115C08C91812B4C
:100C000083278D932150D1F7DF91CF911F910F91C1
:100C1000FF90EF90DF90CF90089530E0D9CF110F83
:100C2000330F222389F39C91912B93279C938F5F01
:100C3000877021508111F3CF9CADA90FB11DF70131
:100C40009081923028F4913009F031E011E0E9CF41
:100C500031E0E7CF80E0089580E008959B01DC015A
:100C60001896ED91FC9141E067E109940895AF92E7
:100C7000BF92CF92DF92EF92FF920F931F93CF9389
:100C8000DF936C017B018B01040F151FEB015E01EB
:100C9000AE18BF08C017D10759F06991D601ED9180
:100CA000FC910190F081E02DC6010995892B79F71F
:100CB000C501DF91CF911F910F91FF90EF90DF90D1
:100CC000CF90BF90AF900895FC01538D448D252F98
:100CD00030E0842F90E0821B930B541710F0CF96D6
:100CE000089501970895FC01918D828D981761F008
:100CF000A28DAE0FBF2FB11D5D968C91928D9F5F1F
:100D00009F73928F90E008958FEF9FEF0895FC01FD
:100D1000918D828D981731F0828DE80FF11D858DB0
:100D200090E008958FEF9FEF0895FC01918D228D43
:100D3000892F90E0805C9F4F821B91098F739927C8
:100D4000089581EB94E00E94950621E0892B09F437
:100D500020E0822F089580E090E0892B29F00E9406
:100D6000A10681110C9400000895FC01A48DA80F28
:100D7000B92FB11DA35ABF4F2C91848D90E00196DD
:100D80008F739927848FA689B7892C93A089B189FD
:100D90008C91837080648C93938D848D981306C09E
:100DA0000288F389E02D80818F7D80830895EF9202
:100DB000FF920F931F93CF93DF93EC0181E0888F15
:100DC0009B8D8C8D98131AC0E889F989808185FFE5
:100DD00015C09FB7F894EE89FF896083E889F98987
:100DE00080818370806480839FBF81E090E0DF9189
:100DF000CF911F910F91FF90EF900895F62E0B8DDC
:100E000010E00F5F1F4F0F731127E02E8C8D8E1196
:100E10000CC00FB607FCFACFE889F989808185FFFD
:100E2000F5CFCE010E94B506F1CFEB8DEC0FFD2F73
:100E3000F11DE35AFF4FF0829FB7F8940B8FEA89B8
:100E4000FB8980818062CFCFCF93DF93EC01888DC7
:100E50008823B9F0AA89BB89E889F9898C9185FD35
:100E600003C0808186FD0DC00FB607FCF7CF8C91C3
:100E700085FFF2CF808185FFEDCFCE010E94B506C0
:100E8000E9CFDF91CF910895833081F028F481304C
:100E900099F08230A9F008958730A9F08830C9F020
:100EA0008430B1F4809180008F7D03C080918000F8
:100EB0008F7780938000089584B58F7784BD0895DF
:100EC00084B58F7DFBCF8091B0008F778093B00089
:100ED00008958091B0008F7DF9CFCF93DF93282FB5
:100EE00030E0F901E750FE4F8491F901E85EFD4FD3
:100EF000D491F901EA5CFD4FC491CC23A1F081119A
:100F00000E944407EC2FF0E0EE0FFF1FE45DFD4F61
:100F1000A591B491EC91ED2381E090E009F480E09B
:100F2000DF91CF91089580E090E0FACF1F93CF93A7
:100F3000DF93282F30E0F901E750FE4F8491F9014B
:100F4000E85EFD4FD491F901EA5CFD4FC491CC23DA
:100F5000A9F0162F81110E944407EC2FF0E0EE0F4C
:100F6000FF1FE25FFD4FA591B4918FB7F894EC910C
:100F7000111108C0D095DE23DC938FBFDF91CF9194
:100F80001F910895DE2BF8CF9091010189130BC0BA
:100F9000EDE0F2E0E4919FEF90930101E13049F040
:100FA00028F0E23061F060E00C94960710926E0039
:100FB000FACF90916F009D7F90936F00F4CF909146
:100FC00070009D7F9093700091E09093B00090919D
:100FD000B100987F94609093B1001092B300E3CF7A
:100FE000CF93DF9390E0FC01E85EFD4F24918A5C93
:100FF0009D4FFC0184918823C9F090E0880F991FD0
:10100000FC01E151FE4FA591B491FC01E25FFD4F5F
:10101000C591D49161110DC09FB7F8948C91209522
:1010200082238C938881282328839FBFDF91CF91CF
:101030000895623051F49FB7F8943C91822F8095C7
:1010400083238C93E8812E2BEFCF8FB7F894EC910C
:101050002E2B2C938FBFEACF4F925F926F927F928D
:101060008F929F92AF92BF92CF92DF92EF92FF92B8
:101070000F931F93CF93DF9300D000D01F92CDB773
:10108000DEB78B0129013A01909101018917C9F05E
:101090009F3F09F47EC00F900F900F900F900F901C
:1010A000DF91CF911F910F91FF90EF90DF90CF9044
:1010B000BF90AF909F908F907F906F905F904F9078
:1010C0000895EDE0F2E094919D8397FDE4CF61E017
:1010D0000E94F0078D81882321F09D81923009F0D4
:1010E0004AC14801B12CA12C60E072E18AE790E08E
:1010F000A50198010E94D92F29833A834B835C83F1
:1011000069017A0181E0C81AD108E108F1089FEF6E
:10111000C916D104E104F10409F00CF401C160E442
:1011200072E48FE090E0A50198010E94D92F690137
:101130007A0181E0C81AD108E108F1089D81923056
:1011400009F0A2C08FEFC816D104E104F10409F040
:101150000CF4E6C160E970ED83E090E0A501980130
:101160000E94D92F69017A0191E0C91AD108E108DA
:10117000F1088FEFC816D104E104F10411F00CF06E
:101180007FC183E09091B100987F892B8093B1005B
:10119000CFC080930101EDE0F2E094919D839F3FE9
:1011A00009F479CF913041F150F0923009F446C002
:1011B0009D8197FD70CF61E00E94F0078ECF14BC37
:1011C00015BC94B5926094BD95B5916095BD282FDE
:1011D00030E0F901EA5CFD4FE491F0E0EE0FFF1F13
:1011E000E25FFD4F45915491F901E85EFD4FE491B6
:1011F000E09385041D826BCF1092800010928100D5
:10120000909181009860909381009091810091600D
:1012100090938100282F30E0F901EA5CFD4FE491C2
:10122000F0E0EE0FFF1FE25FFD4F45915491F90191
:10123000E85EFD4FE491E093840449CF1092B00042
:101240001092B1009091B00092609093B000909194
:10125000B10091609093B100282F30E0F901EA5C71
:10126000FD4FE491F0E0EE0FFF1FE25FFD4F45916F
:10127000549150938F0440938E04F901E85EFD4F22
:10128000E491E093900423CF9FEFC916D104E104C9
:10129000F10409F00CF46DC068E478EE81E090E0B0
:1012A000A50198010E94D92F69017A0181E0C81A2D
:1012B000D108E108F1089D81992309F4FAC08FEF64
:1012C000C816D104E104F10411F00CF0FBC0EFC02A
:1012D00064E274EF80E090E0A50194010E94D92FB0
:1012E00069017A0181E0C81AD108E108F10885E0B6
:1012F0009FEFC916D104E104F10409F008F442CFCC
:1013000062E17AE780E090E0A50194010E94D92F84
:1013100069017A0181E0C81AD108E108F108E5C045
:1013200081E09D8191112ECF95B5987F892B85BD48
:101330002FEF3FEFA901411451046104710409F03A
:1013400043C09D81913009F45EC0923009F46DC0B4
:101350009111A1CEC7BC20938A0430938B04409393
:101360008C0450938D0480916E00826080936E0097
:1013700092CE82E0D6CFB12CA12C60E072E18AE758
:1013800090E0A50198010E94D92F69017A0181E0BE
:10139000C81AD108E108F108C114D10491E0E906A6
:1013A000F10404F591E08D81813011F68091810086
:1013B000887F892B809381002FEF3FEFA901411493
:1013C000510461047104F9F0D801AA0FBB1FA301F5
:1013D00092010E94A22C28EE33E040E050E00E94EF
:1013E000B72FAFCF68E478EE81E090E0A5019801D7
:1013F0000E94D92F69017A0181E0C81AD108E10859
:10140000F10893E0D0CFD0928900C0928800209359
:101410008604309387044093880450938904809114
:101420006F00826080936F0036CEC092B30020932D
:1014300091043093920440939304509394048091C8
:10144000700082608093700026CE84E09FEFC91602
:10145000D104E104F10409F008F466CFC980DA8010
:10146000EB80FC808AE0F594E794D794C7948A9542
:10147000D1F781E0C81AD108E108F10885E054CF1E
:1014800068E478EE81E090E0A50198010E94D92FF0
:1014900069017A0181E0C81AD108E108F1089FEFDB
:1014A000C916D104E104F10411F00CF011CF84E06D
:1014B00069CE83E09FEFC916D104E104F10409F07D
:1014C0000CF432CF62E17AE780E090E0A50194016C
:1014D0000E94D92F69017A0181E0C81AD108E10878
:1014E000F1089D81992309F4B0CF86E09FEFC916DA
:1014F000D104E104F10409F008F444CEC980DA8093
:10150000EB80FC809AE0F594E794D794C7949A9581
:10151000D1F781E0C81AD108E108F10887E032CE9E
:1015200082E030CE1F93CF93DF93182FEB0161E061
:101530000E94F007209739F460E0812FDF91CF916E
:101540001F910C949607CF3FD10511F461E0F5CFC0
:10155000E12FF0E0E750FE4FE491E33031F140F449
:10156000E130B1F0E230E1F0C038D1057CF7E4CFF2
:10157000E73029F1E83059F1E430B1F7809180008B
:10158000806280938000D0938B00C0938A0004C057
:1015900084B5806884BDC7BDDF91CF911F91089548
:1015A00084B5806284BDC8BDF7CF8091800080681B
:1015B00080938000D0938900C0938800EDCF809104
:1015C000B00080688093B000C093B300E5CF8091F5
:1015D000B00080628093B000C093B400DDCF8E5025
:1015E000806480937C0080917A00806480937A008C
:1015F00080917A0086FDFCCF8091780090917900EF
:1016000008953FB7F8948091800490918104A0914F
:101610008204B091830426B5A89B05C02F3F19F022
:101620000196A11DB11D3FBFBA2FA92F982F882762
:10163000BC01CD01620F711D811D911D42E0660F3D
:10164000771F881F991F4A95D1F708958F929F920F
:10165000AF92BF92CF92DF92EF92FF926B017C012B
:101660000E94010B4B015C01C114D104E104F1049F
:10167000B9F00E94010B681979098A099B09683E33
:1016800073408105910580F321E0C21AD108E10879
:10169000F10888EE880E83E0981EA11CB11CE4CFEF
:1016A000FF90EF90DF90CF90BF90AF909F908F9082
:1016B00008950F931F93CF93DF938C01C62F642F50
:1016C000CC32E8F4CA3208F041C0C83271F1C932F4
:1016D00009F442C080E0C034D0F1CF73F801EC0FC0
:1016E000F11D868D8F3F91F1C031E0F00E946D07B2
:1016F00021E0892B09F420E0F801218F27C0CD32A9
:1017000089F140F384EB8C0F823020F7CF73C00F48
:10171000D12FD11D8E8D411133C061E00E94F007A1
:1017200060E08E8D0E94960711C0025E1F4FD0E0D0
:10173000F80181918F018F3F31F061E0D03108F0E5
:1017400062E00E94F007DF5FD63191F781E0DF9120
:10175000CF911F910F91089570E090E080E00E947A
:10176000260BF4CF85E090E0433010F082E090E06B
:10177000880F991F880F991F05970197F1F7E6CFFA
:1017800062E00E94F007E2CF089520912F04260F17
:101790003327331F21323105ECF420915504FC012D
:1017A00090E080E0243069F082E00895A0912F0459
:1017B0002191AC01435F5B4FA40FB52FB11D2C935A
:1017C0000196861798F380912F04680F60932F0479
:1017D00080E0089581E008951092550481E080939F
:1017E00057041092560461E082E10E94960761E07E
:1017F00083E10E949607E9EBF0E080818E7F808391
:1018000080818D7F808388E48093B80085E4809315
:10181000BC000895CF93DF9391E090930C0488234C
:10182000B9F0C091B800D091BA008091BC008A7B19
:101830008093BC0060E082E10E94960760E083E153
:101840000E9496070E94EC0BD093BA00C093B80098
:10185000DF91CF910895089508950895E0910404CB
:1018600080910304E81730F4F0E0ED51FC4F8081E3
:1018700090E008958FEF9FEF089590910404809178
:1018800003042FEF3FEF981748F4E92FF0E0ED51F4
:10189000FC4F208130E09F5F90930404C9010895BC
:1018A0008091030490910404891B990B0895CF92B1
:1018B000DF92EF92FF920F931F93CF93DF937C0100
:1018C000CB018A012091E203222389F0EB016B0115
:1018D000C40ED51ECC15DD0569F06991D701ED91D7
:1018E000FC910190F081E02DC7010995F3CF642FA1
:1018F0000E94C50BC801DF91CF911F910F91FF90FE
:10190000EF90DF90CF900895CF93DF931F92CDB7E4
:10191000DEB769832091E2032223F9F020910504C8
:10192000203258F021E030E0FC013383228390E044
:1019300080E00F90DF91CF91089580910604E82F09
:10194000F0E0EE53FC4F998190838F5F8093060403
:101950008093050481E090E0ECCF61E0CE01019638
:101960000E94C50BF7CF2091970430919804281757
:10197000390771F49091950480919604981741F07D
:10198000E0919504F0E0EE57FC4F808190E00895DF
:101990008FEF9FEF0895EF92FF920F931F93CF93D6
:1019A000DF93DC015C96ED90FC905D97E114F1040F
:1019B00079F481E090E013969C938E93129790E0D7
:1019C00080E0DF91CF911F910F91FF90EF900895EC
:1019D0005196ED91FC91529750968C915097982F7B
:1019E00090950FB75E962C915E97122F127021FD85
:1019F0006095F8942081112319F1282B2083E701A9
:101A00002197F1F728E0462F50E0308160FF1AC09F
:101A1000382B3083E7012197F1F7BA017595679567
:101A2000215089F7112381F08081892380830FBFA2
:101A30005C968D919C910197F1F781E090E0C1CF88
:101A40002923DCCF3923E5CF9081892BEFCF20915B
:101A50009704309198042817390771F480919604FF
:101A60002091950490E0805C9F4F821B910960E477
:101A700070E00E94A32F089590E080E008952091E7
:101A800097043091980428173907B9F49091950478
:101A900080919604981789F0E0919504F0E0EE5754
:101AA000FC4F80812091950430E02F5F3F4F2F73D2
:101AB00033272093950490E008958FEF9FEF0895CA
:101AC000FC0181E09191992321F09A30D9F78F5F41
:101AD000F9CF0895009711F00C94600D80E00895FF
:101AE000972F882381F0E62FF72F21E031913323C0
:101AF00041F06E2F9F2F3A30C9F7821721F02F5FE8
:101B0000F5CF60E090E0862F0895DC011A96ED9104
:101B1000FC9130E020E00994FF920F931F93CF9344
:101B2000DF93EC0100E51FEFFF24F394F98E40E012
:101B3000602FCE010E94850D898D8170110F182BA9
:101B40000F5F063599F78C8D803131F120F48823B1
:101B5000E9F081501FC0803241F18033D1F78A8D86
:101B600081131EC01C8E2B8D86E091E012278150C0
:101B7000212F292321F4990F8111F9CF86E0805B71
:101B8000DF91CF911F910F91FF9008958A8D81175A
:101B900039F082E18C8F04C08A8D811303C01C8EC2
:101BA00080E0EECF1B8F82E2F5CF8B8D8113F7CFD4
:101BB00080E3F0CFDC011696ED91FC9130E020E05F
:101BC00040E069E10994DC011696ED91FC9130E06A
:101BD00020E040E068E109949A01DC011696ED915D
:101BE000FC91462F67E10994EF92FF920F931F93A8
:101BF000CF93DF931F92CDB7DEB77C018B01D80165
:101C00006C91673129F150F46531A0F40F90DF91A8
:101C1000CF911F910F91FF90EF9008956A3118F1C5
:101C20006E3FA1F7F8014181498369E2C7010E9433
:101C3000850D0BC0F80141814983D7011696ED91BE
:101C4000FC9130E020E0C70109950E5F1F4FD7CF10
:101C5000F80181818983AE014F5F5F4F61E0C70169
:101C60000E94EC0DF2CF0F5F1F4FD7011696ED913A
:101C7000FC9130E020E040E0C7010995C0CF462F3D
:101C8000DC011696ED91FC9130E020E066E10994CC
:101C9000462FDC011696ED91FC9130E020E065E1E5
:101CA0000994EF92FF920F931F93CF93DF93EC0170
:101CB000042F79016D3009F446C050F46B30C9F13E
:101CC000693009F49FC06A3009F465C080E046C0FD
:101CD0006E3009F452C06F3099F70E94E30DF7019E
:101CE0001381110F110F110F6C89160F60E4CE01D3
:101CF0000E94480E612F62956F706061CE010E9454
:101D0000480E612F6F70CE010E943F0EF701648173
:101D1000606BCE010E943F0EF701408151816281CC
:101D2000660F660F660FCE010E94EC0D0150A1F701
:101D30002EC06FE171E0442311F06AE171E0CE0141
:101D40000E94F40D0AC0411110C063E171E00E94CD
:101D5000F40DE881F98182898C8B81E0DF91CF914C
:101D60001F910F91FF90EF9008956CE071E00E9439
:101D7000F40DE881F9818389EFCF0E94E30D61E8DA
:101D8000CE010E94480E602FCE010E943F0ECE0170
:101D90000E94DA0DE2CFEA85FB8530E020E040E0EA
:101DA00068E2CE010995EE81FF8130E020E040E05D
:101DB00064E1CE01099541E06BE4CE010E94850DFE
:101DC000E881F981448169E2CE010E94850D40E0FD
:101DD0006BE4CE010E94850DE881F981448169E2BE
:101DE000CE010E94850D41E06BE4CE010E94850D7D
:101DF000E881F981458169E2CE010E94850D64E2A6
:101E000071E09DCF89E591E0998388831C8AA5CFF5
:101E1000DC011896ED91FC9130E020E040E069E1B2
:101E20000994DC011896ED91FC9130E020E040E04F
:101E300068E10994CF93DF931F92CDB7DEB7698332
:101E4000BE016F5F7F4F0E942E060F90DF91CF91F2
:101E50000895EF92FF921F93CF93DF93EC01162F1B
:101E60007A010E94110F60E4CE010E941A0FE885EA
:101E7000F9859701412F67E1CE010995CE01DF91E8
:101E8000CF911F91FF90EF900C94080FEF92FF926B
:101E90001F93CF93DF93EC01142F7901663181F109
:101EA00038F4643109F44BC0653179F080E022C028
:101EB0006831C9F150F16931C9F7809181038823F4
:101EC00091F1CE010E94080F2EC0809181038823DA
:101ED00019F0CE010E94080FCE010E94110F60E0A0
:101EE000CE010E941A0F612FCE010E941A0F81E0CD
:101EF00080938103DF91CF911F91FF90EF90089520
:101F0000642F0E941A0F81E0F5CF8091810388230E
:101F100019F0CE010E94080FA701193138F4612F82
:101F2000CE010E94290F10928103EDCF68E1CE010E
:101F30000E94290F185188E1E80EF11CEDCF8E891F
:101F40008F3F11F488E78E8BE885F9859701412F43
:101F500064E1CE01DF91CF911F91FF90EF90099442
:101F6000FC016623D9F16A30C9F1808D811125C049
:101F70006C3F48F085E0808F617070E0738B628BFE
:101F80002EEF3FEF29C0683F20F084E0808F637020
:101F9000F4CF603F20F083E0808F6770EECF603E2B
:101FA00020F082E0808F6F70E8CF262F30E0603C19
:101FB00098F081E0808F6F71E0CF8150808F22890F
:101FC000338996E0220F331F9A95E1F76F73262B22
:101FD000338B228B8111D4CFC90108952FEF3FEFAE
:101FE000FBCF0F93DC01DE963C91DE97431BD4962A
:101FF000ED91FC9109950F910895CF93DF93FC012A
:10200000A081B18182AD982F990F990F990F95AF4B
:1020100050969C915097903208F09FE1990F990F3C
:10202000990F94AF23AD922F990F990F990F96AFF7
:1020300051963C915197682F620F7727771F36177B
:10204000170614F4832F821B97AFEF01C05CDF4F9C
:10205000880F880F880F890F8883219680EF8883E7
:1020600054968D919C915597813F910508F48883F2
:10207000EE5BFF4F56968C918083DF91CF91089550
:102080000F93FC01EB5BFF4F308131965081451778
:1020900030F4301738F0041728F080E013C0301700
:1020A000D0F3FBCFFC01ED5BFF4F30818C5B9F4F8A
:1020B000FC018081681740F481E0321718F081E05C
:1020C000261758F70F9108953217C8F3E6CF2F92CD
:1020D0003F924F925F926F927F928F929F92AF92B8
:1020E000BF92CF92DF92EF92FF920F931F93CF9305
:1020F000DF93EC014C0183E4880E911CF401108203
:10210000329720805E01F4E4AF0EB11CF50120820D
:102110003FAC6E01F5E4CF0ED11CF601308235974D
:1021200040807E01F6E4EF0EF11CF7014082349608
:102130001081329760803196708032975080012FE5
:10214000262D472D652DCE010E944010CD58DF4F22
:10215000811114C01882DF91CF911F910F91FF90D0
:10216000EF90DF90CF90BF90AF909F908F907F9037
:102170006F905F904F903F902F90089581E08883FB
:10218000552011F0F4015082621410F4F5016082C0
:10219000371410F4F60170821415E8F6F701108375
:1021A000DACF87589F4FFC01608308950F93DC01BD
:1021B000802FFD01ED58FF4F90819923E9F12223F3
:1021C000D9F1223020F0023079F56F5F621B082FC1
:1021D0000170FD0180FD32C0EB5BFF4F808148172D
:1021E00058F131968081481738F5329790813197B0
:1021F0008081260F2617F0F46917D8F42FEF290FE6
:102200008217D0F4681708F4682F291708F4922F62
:10221000961BD696ED91FC91D7970480F581E02D21
:10222000292FCD01099508C0033089F64F5F421B65
:10223000CECF682F691720F30F910895ED5BFF4F04
:1022400080816817C8F3319680816817A8F73296A5
:10225000908131978081240F241778F4491760F416
:102260002FEF290F821740F7481708F4482F291736
:1022700008F4922F941BCDCF482F4917E8F6F2CFE0
:10228000213039F020F0223031F0840F0895860F8C
:102290000895841B0895861B0895213039F020F09D
:1022A000223031F0861B0895840F0895860F08951B
:1022B000841B08955F926F927F928F929F92AF924C
:1022C000BF92CF92DF92EF92FF920F931F93CF9323
:1022D000DF935C01162F642EEC01C15BDF4FDC80C5
:1022E000ED804C0189E7880E911CFE80FD18C12EFF
:1022F000F11608F4CF2C5B800C85202F4E2D6D2D10
:102300008A810E944011782E202F4E2D6D2D852D13
:102310000E944D11482F662071F08A85F401808358
:102320002C2D672DC5010E94D6101F1548F01F19CE
:10233000E394D12CDACF89858111F7CF8B85EECF4D
:102340001D0D1C83ED82DF91CF911F910F91FF90A6
:10235000EF90DF90CF90BF90AF909F908F907F9045
:102360006F905F900895DC0118964C911897ED914D
:10237000FC911197249130E0042E02C035952795E9
:102380000A94E2F7842F860F883068F03196119610
:10239000FC93EE93E49198E0941B01C0EE0F9A95A4
:1023A000EAF72E2B885018968C938FEF9FEF01C081
:1023B000880F6A95EAF78095822308950F931F93FB
:1023C000CF93DF938C01EC01C15BDF4F798368838E
:1023D0001886FC01E05AFF4F6081CE010E94B311C4
:1023E0008E83F801EF59FF4F6081CE010E94B31137
:1023F0008F83F801E758FF4F90819A8781E0911110
:1024000080E08B87DF91CF911F910F910895CF933B
:10241000C62F0E94B311C15021E030E001C0220F4D
:10242000CA95EAF7821BCF910895FC01E60FF11DD2
:10243000849190E0982F88273196E4918E0F911D1A
:102440000895EF92FF920F931F93CF93DF93FC01B8
:10245000E55BFF4F20813181295E3F4F6F3F710562
:1024600009F048F561367105D8F081599F4FFC019C
:1024700080819181280F391FC9010196FC01449187
:10248000442309F447C0F90144914617170671F433
:102490000196DF91CF911F910F91FF90EF900895DA
:1024A0006134710548F383599F4FE1CFFC0184915A
:1024B000280F311DE1CF8B01FC01EF58FF4FC08188
:1024C000D181C20FD31F7E0160E0C7010E941512A7
:1024D000C80FD91F62E0C7010E941512F4E0EF0E89
:1024E000F11C8017910780F3FE01849190E0982FF2
:1024F00088273196E4918E2B009761F00817190711
:1025000019F4CE010396C5CFFE013296E491CE0FA9
:10251000D11DEACF90E080E0BCCF2F923F924F9246
:102520005F926F927F928F929F92AF92BF92CF9263
:10253000DF92EF92FF920F931F93CF93DF93EC0103
:102540006C0125E5C20ED11CF6011082188E8B019C
:10255000312C212C7C01FFE4EF0EF11C2C0122E632
:10256000420E511C3C0187E7680E711C5E01E3E6D8
:10257000AE0EB11C4E01F4E68F0E911CF801619174
:102580008F01EA81FB81CE0109958F3F980721F1E8
:102590008E3F2FEF920791F3BC01CE010E942112D2
:1025A0000097C1F0BC01CE010E94DE11F2016081F2
:1025B000C7010E940712F3018083F5016081C70102
:1025C0000E940712F4016081C7010E940712382E91
:1025D000280ED4CF80E0FBCFF6018081882331F034
:1025E000C958DF4F9881890F280E2318822DDF915B
:1025F000CF911F910F91FF90EF90DF90CF90BF9000
:10260000AF909F908F907F906F905F904F903F9092
:102610002F9008958F929F92AF92BF92CF92DF92A8
:10262000EF92FF920F931F93CF93DF93EC01062F4E
:10263000142F7901FC01E55AFF4F8081813009F4A4
:102640006CC008F460C0823009F471C0833009F4B2
:1026500078C0FE01EF5AFF4F008331961083B70117
:10266000CE010E942112009709F4D5C07E012FE40B
:10267000E20EF11CBC01CE010E94DE11FE01EA5AFD
:10268000FF4FC0803C966081C7010E940712982EC0
:10269000FE01ED59FF4F6081C7010E940712B82E5D
:1026A000FE01EC59FF4F6081C7010E940712A82E5E
:1026B000F701068110160CF086C0D484BC0CB194CE
:1026C0002D2D4B2D692D82810E944011182FF7016D
:1026D00082832D2D4B2D692D83810E944D11482F12
:1026E000F7018383F1E0DF1609F47BC0DF1698F170
:1026F00022E0D21609F47BC083E0D81609F482C028
:10270000042F212F2CC0FE01E35BFF4F0190F081CD
:10271000E02DCE010995180F9CCFFE01E35BFF4F22
:102720000190F081E02DCE010995081B92CFFE01AA
:10273000E35BFF4F0190F081E02DCE010995181B5E
:1027400088CFFE01E35BFF4F0190F081E02DCE01C9
:102750000995080F7ECF202F210F0C2D080F612F18
:10276000CE010E944010882371F1F7011482158276
:102770008E01025A1F4F4E01FFE58F0E911CF8018A
:102780006081C7010E94B311B82EF4016081C701B6
:102790000E94B311D82E40E06B2DCE010E945A1139
:1027A00041E06D2DCE010E945A1161E0C7010E94E7
:1027B000B3118111F0CFF70185818C1504F3C7584F
:1027C000DF4F828588838A2DDF91CF911F910F91F2
:1027D000FF90EF90DF90CF90BF90AF909F908F9041
:1027E0000895DC1821E0210F080F1D0DB8CF81E0FE
:1027F000982F901B21E0210F8C1901E0040F480F46
:10280000190FADCF2C2D210F842F801B01E0040F59
:1028100041E0480FA4CF80E0D7CFAF92BF92DF92C4
:10282000EF92FF920F931F93CF93DF93EC01162F3C
:10283000042F188E7901D12C5C012BE5A20EB11C5E
:10284000F70161917F01EA81FB81CE0109958F3FFC
:102850009807E9F08E3F2FEF920791F39C01402FEC
:10286000612FCE010E940A13F5019081913049F049
:1028700030F0923041F0933041F0D80EE1CF180F94
:10288000FCCF080FFACF181BF8CF081BF6CF8D2D01
:10289000DF91CF911F910F91FF90EF90DF90BF904C
:1028A000AF900895CF93DF93EC016BAFEEA9FFA932
:1028B0000190F081E02D0995EEA9FFA90280F38136
:1028C000E02DCE01DF91CF910994AF92BF92CF92CC
:1028D000DF92EF92FF920F931F93CF93DF9300D07D
:1028E00000D01F92CDB7DEB78C01DC01DA96AC9038
:1028F000DA97DB96EC90DB97ED91FC91B188FE2C9A
:10290000D12CC12CD801ED91FC9111978089D896DA
:102910002D913C911C82FD828B83B8E08B9FC0017E
:1029200011248C9DA0018D9D500D9C9D500D112456
:10293000240F351F3A832983D8011496ED91FC9119
:102940009E012F5F3F4F41E06FE0C8010995F3946E
:102950008F2D8E198A1528F4BFEFCB1ADB0AFB14D2
:1029600088F20F900F900F900F900F90DF91CF9102
:102970001F910F91FF90EF90DF90CF90BF90AF909D
:102980000895DF92EF92FF920F931F93CF93DF93FF
:102990007C01162FC42FD22ED42FD00F262F2D0D11
:1029A0000D2F0E944010811110C0DF91CF911F9117
:1029B0000F91FF90EF90DF90089500E02D2D4C2FA8
:1029C000612FC7010E94D610CF5FDC13F6CFEDCF89
:1029D0002F923F924F925F926F927F928F929F922F
:1029E000AF92BF92CF92DF92EF92FF920F931F931D
:1029F000CF93DF9300D000D01F92CDB7DEB79D8379
:102A00008C83A62E642EF22E4801FC01E55AFF4F5E
:102A100010823E970190F081E02D0995680E80EBC1
:102A20009FE0EC81FD8193838283B801CF010E94F6
:102A30008D12582EB12C8F1520F4BF2CB81AB694D5
:102A40005F2CEC81FD81EB58FF4FF080162D1F1994
:102A5000EC81FD81EA58FF4F8081F81A61E08C819A
:102A60009D810E94D110CC2041F00F2D252D412FAA
:102A70006A2D8C819D810E94C114DD24D394DA0CCF
:102A8000D50CF12FFE19F9838FEF8A0D811B8A83F4
:102A9000852D8F198E5F8B837F2C7A18710E751898
:102AA000EA2CE094EF0CE10EE518E9811E1331C029
:102AB00060E0C11001C061E08C819D810E94D11055
:102AC00080EB9FE0EC81FD81938382836B2D6A0D07
:102AD0009401462DCF010E940D1461E08C819D81EF
:102AE0000F900F900F900F900F90DF91CF911F914B
:102AF0000F91FF90EF90DF90CF90BF90AF909F909D
:102B00008F907F906F905F904F903F902F900C949C
:102B1000D1105A80510E44244A94410E2B802F0C20
:102B200082E0382E3F0C072D0D0D2D2D442D652DE7
:102B30008C819D810E944010882339F100E0222D74
:102B4000442D652D8C819D810E94D61081E08315D6
:102B5000E0F4FF2091F001E02F2D412F652D8C81B5
:102B60009D810E94D6102F2D412F6FEF6D0D8C810E
:102B70009D810E94D6101E2D1D0D00E0222D412F9B
:102B8000652D8C819D810E94D610D394F32C142D39
:102B90008CCF7F928F929F92AF92BF92CF92DF9213
:102BA000EF92FF920F931F93CF93DF934C01D62F99
:102BB000742EF22E5801C8010E946A0DD82EC0E072
:102BC000DC1211C0DF9C802D1124DF91CF911F9169
:102BD0000F91FF90EF90DF90CF90BF90AF909F90BC
:102BE0008F907F900895B5018C2F0E94700DC12C9D
:102BF000E12C8C01272D4D2F60E0C4010E94E814C8
:102C0000DF0DCF5FDDCFCF92EF920F931F93CF9366
:102C1000DF93D62FC091E006CF5F9091E106C91BEC
:102C2000EE24E3948413E12CB901842F0E94700DEB
:102C3000009711F48FEB91E02091AC062250CE2C3E
:102C40008C014D2F61E08BE696E00E94E8148C2FFA
:102C5000DF91CF911F910F91EF90CF900895CF9278
:102C6000DF92EF92FF920F931F93CF93DF93EC01CC
:102C7000962F683109F44BC0B901993130F4943181
:102C8000C9F0973189F080E006C0993109F461C03C
:102C90009032C9F781E0DF91CF911F910F91FF90A2
:102CA000EF90DF90CF90089550E08EE495E00E9481
:102CB000570CF0CF8C859D85AE85BF85892B8A2BDF
:102CC0008B2B71F4E881F981A585B0E020EA36E824
:102CD00041E050E00E94A22C6C877D878E879F8701
:102CE000109204041092030410920604109205043A
:102CF0000E94EC0B8BE29CE090932E0480932D04B9
:102D00008CE29CE09093320480933104C3CF2C85F5
:102D10003D854E855F8560E074E284EF90E00E941F
:102D2000B72F2051310941095109569547953795DB
:102D300027952093B8008E8990E09595879591E02E
:102D40009093E2038093800310920604109205048E
:102D5000A1CFD0910504D13208F093C0C091800377
:102D60000E94010B6B017C0180915504811164C0AC
:102D700082E08093550481E0809357048FEF809325
:102D8000540410927904D0937804A2ECB3E0E8E5FF
:102D9000F4E080E0D8137CC010927A0480917A0429
:102DA000CC0FC82BC0937A0480915604813009F06F
:102DB00073C0109256040E94010B6B017C0180913C
:102DC0007A048093BB008091080490910904A0913B
:102DD0000A04B0910B04892B8A2B8B2B99F00E944B
:102DE000010B009108041091090420910A0430910C
:102DF0000B046C197D098E099F0906171707280710
:102E00003907D8F18091BC0083FDD9CF85EC809340
:102E1000BC000E94010B6B017C0180915504823043
:102E2000E9F1809154048F3F61F180915404803224
:102E300041F18091540425C08091080490910904C7
:102E4000A0910A04B0910B04892B8A2B8B2B09F4D7
:102E50008BCF0E94010B009108041091090420916E
:102E60000A0430910B046C197D098E099F0906171D
:102E700017072807390708F077CF809107040E94C9
:102E80000A0C10920604109205041092E20302CF7D
:102E90009D9191938F5F7ECF85EEB9CF809108048D
:102EA00090910904A0910A04B0910B04892B8A2BFC
:102EB0008B2B09F4B2CF0E94010B009108041091F2
:102EC000090420910A0430910B046C197D098E09C4
:102ED0009F09061717072807390708F09ECFCDCF9F
:102EE000FC018081811102C00C94010B813071F4CE
:102EF0008FB7F89420917C0430917D0440917E043A
:102F000050917F048FBFCA01B90108958230D9F76B
:102F10002FB7F89460917C0470917D0480917E04B9
:102F200090917F042FBF28EE33E040E050E00E94F4
:102F3000B72FE9CF0F931F93CF93DF93EC010E943C
:102F400070170C811D812E813F81601B710B820BDC
:102F5000930B088519852A853B85601771078207C1
:102F60009307E0F0CE010E9470176C837D838E83FF
:102F70009F838981882391F09A81992379F09F3FDB
:102F800039F4EC85FD85DF91CF911F910F91099464
:102F90008B81891718F48F5F8B83F3CFDF91CF91EB
:102FA0001F910F910895CF93DF93C5E5D6E02C8153
:102FB0003D8150E040E06A817B8188810E942C083D
:102FC00064E670E080E090E00E94260B8881DF914B
:102FD000CF910C94C407DC01ED91FD918081ED91BE
:102FE000FD919081ED91FD916C9163708E2309F0BC
:102FF00064609F2309F06860E8E0F8E1E60FF11DE6
:10300000659565956D936D917D918D919D910994D7
:1030100023C01AC012C016C010C01EC009C014C000
:1030200013C006C019C009C00DC007C00DC014C030
:1030300062507040804090400BC0615070408040B2
:10304000904006C06E5F01C06F5F7F4F8F4F9F4FF4
:103050009E938E937E936E93089580915A059091DE
:103060005B050C94EB1780915C0590915D050C94C9
:10307000EB17CF93DF938BE696E00E948C0D8035A3
:1030800019F481E080937F0380916606823008F016
:1030900066C0F8948BE596E00E94EB17809162067B
:1030A000789480936E0383E00E946D0721E0892B62
:1030B00009F020E020936F0382E00E946D0721E079
:1030C000892B09F020E02093700384E10E94EF0A2D
:1030D000909372038093710385E10E94EF0ABC0113
:1030E000990F880B990B0E94852B20E030E44CE966
:1030F00050E40E94E42B20E030E040E251E40E94E2
:10310000602D6093730370937403809375039093A1
:1031100076032FB7F89460917C0470917D048091C0
:103120007E0490917F042FBF28EE33E040E050E012
:103130000E94B72FDA01C901209377039093780397
:1031400040937903B0937A0310927B0310927C032F
:1031500010927D0310927E03DF91CF910895F89431
:103160009DCFCF92DF92EF92FF920F931F93CF9359
:10317000DF936C01EB017B01E40EF51E10E000E033
:10318000CE15DF0561F06991D601ED91FC910190BA
:10319000F081E02DC6010995080F191FF1CFC80174
:1031A000DF91CF911F910F91FF90EF90DF90CF9023
:1031B0000895CF92DF92EF92FF920F931F93CF93D8
:1031C000DF93EC016C0124E0C20ED11CFC01E1583C
:1031D000FF4F0190F081E02DC60109958E3FEFEF82
:1031E0009E07C8F48E010E571F4F7E01F1E8EF0EC7
:1031F000F11C9C01F8014081F7016081C6010E9429
:103200000A13C15ADF4F98819130A9F078F09230BB
:10321000A1F09330B9F081E090E0DF91CF911F9160
:103220000F91FF90EF90DF90CF900895F70190817C
:10323000890F8083F0CFF801FACFF7019081981BB6
:10324000892FF7CFF801FACF90E080E00895CF9270
:10325000DF92EF92FF920F931F93CF93DF9300D0F3
:10326000CDB7DEB769834A83880F991F0091530653
:1032700010915406000F111FEDEFF5E09F012D5F37
:1032800035402017310714F41192F8CF2981FC0141
:10329000E350FA4F21838A81808360E08091510658
:1032A0000E9496071016110604F501501109F80145
:1032B000E350FA4FE080D0904F06C0904D0688E072
:1032C000F82E6E2D661F6627661F8C2D0E949607AE
:1032D000EE0C61E08D2D0E94960760E08D2D0E941E
:1032E0009607FA94F110EDCFDDCF61E080915106A1
:1032F0000F900F90DF91CF911F910F91FF90EF9062
:10330000DF90CF900C949607EF92FF921F93CF938C
:10331000DF93209153063091540682179307B4F43B
:10332000EC0123E0880F991F2A95E1F79C01235FA8
:10333000394F790111E0F70111927F0140E0612FCF
:10334000CE010E9427191F5F1930A9F7DF91CF9195
:103350001F91FF90EF900895FC0101900020E9F784
:103360003197AF01481B590BBC0187E696E00C94DE
:10337000B1188F929F92AF92BF920F931F93CF93EA
:10338000DF93CDB7DEB7A1970FB6F894DEBF0FBEBF
:10339000CDBF19A2423008F44AE08E010F5D1F4FE5
:1033A000842E912CB12CA12CA50194010E94B72F41
:1033B000E62FB901CA01EA30F4F4E05DD801EE93DA
:1033C0008D01232B242B252B79F790E080E010979B
:1033D00019F0CD010E94AC19A1960FB6F894DEBF8A
:1033E0000FBECDBFDF91CF911F910F91BF90AF90D6
:1033F0009F908F900895E95CE1CF0F931F93CF9337
:10340000DF938C01EB01FC01808191810097E1F059
:103410006881798161157105A9F0428153812C8100
:103420003D814217530770F00E9404328C819D81C8
:10343000F801958384831D821C82DF91CF911F91B7
:103440000F9108950E94AE3088819981F80191838F
:1034500080838A819B81938382838C819D819583E4
:103460008483198218821B821A82E5CFCF93DF935F
:10347000EC0188819981009711F00E94AE30198289
:1034800018821D821C821B821A82DF91CF910895BF
:10349000FC0180819181009711F00C94AE30089569
:1034A0000F931F93CF93DF93EC018881998100974D
:1034B00059F02A813B812617370730F081E0DF91F0
:1034C000CF911F910F9108958B016F5F7F4F0E94E5
:1034D0003731009759F0998388831B830A832C81A5
:1034E0003D81232B59F7FC011082E8CF80E0E7CF24
:1034F000EF92FF920F931F93CF93DF9361157105A6
:1035000041F480E0DF91CF911F910F91FF90EF90F8
:10351000089541155105B1F07B01EC010C811D812D
:10352000040F151FB8010E94501A882351F32881F7
:1035300039818C819D81B701820F931F0E940432D3
:103540001D830C8381E0DECFEF92FF920F931F93D8
:10355000CF93DF93EC017B01198218821B821A82C0
:103560001D821C82FB0101900020E9F731978F0139
:10357000061B170BB8010E94501A811109C0CE0119
:10358000DF91CF911F910F91FF90EF900C94361A1D
:103590001D830C83B70188819981DF91CF911F91A1
:1035A0000F91FF90EF900C940432EF92FF920F93E3
:1035B0001F93CF93DF9300D000D000D0CDB7DEB7FC
:1035C0008C017B0169EB71E0CE0101960E94A41A87
:1035D000F7014481558160817181CE0101960E947D
:1035E000781A811104C0CE0101960E94361A42E079
:1035F00050E06DEB71E0CE0101960E94781A8111C6
:1036000004C0CE0101960E94361A4D815E81698107
:103610007A818EED95E00E943706CE0101960E94D8
:10362000481A6FEB71E0C8010E94A41A88EEE82ED8
:1036300083E0F82E61E070E080E090E00E94260BCD
:103640008EED95E00E94270D892B79F08EED95E0A7
:103650000E943F0D89831A8241E050E0BE016F5FF6
:103660007F4FC8010E94781AEBCFF1E0EF1AF10802
:1036700009F7C80126960FB6F894DEBF0FBECDBF7E
:10368000DF91CF911F910F91FF90EF90089585EDFD
:103690008093BC008091080490910904A0910A04D1
:1036A000B0910B040796A11DB11D23E0B695A79517
:1036B000979587952A95D1F72091BC0024FD03C0EA
:1036C00010925504089540910804509109046091A6
:1036D0000A0470910B04452B462B472B69F3009786
:1036E000A105B10541F025E32A95F1F70000019706
:1036F000A109B109E1CF809107040C940A0CFC01E7
:10370000A081B18150962C9182AD38E0839FC00199
:103710001124289FA001299F500D112470E060E022
:1037200080AD91AD0C94FD311F93CF93DF93EC01ED
:103730000E9465141BAD8AAD180FE881F98181895B
:10374000181768F0EC81FD8130E020E040E060E196
:10375000CE01099580E0DF91CF911F910895FE0180
:10376000E658FF4F8081882319F0CE010E947F1B0D
:10377000612FCE010E94521481E0EDCFCF93DF93F1
:10378000EC01FC01E658FF4F8081882319F0CE013F
:103790000E947F1B60E0CE01DF91CF910C94521408
:1037A0005F926F927F928F929F92AF92BF92CF92D1
:1037B000DF92EF92FF920F931F93CF93DF935C0101
:1037C000562EF42E4901FC0170801092C6068CE240
:1037D00096E09093B9068093B8066090E0068091D9
:1037E000E106681A8FEB91E00E94600DF62D869D30
:1037F000F00D1124C091AD06FC1708F05EC0CF1B80
:10380000C69500EB1FE010936E0600936D066FEBFC
:1038100071E08BE696E00E948D12D82F10936E0611
:1038200000936D066CE272E08BE696E00E948D12CA
:10383000E82E10936E0600936D06B4018BE696E0B9
:103840000E948D128D0FEF9C800D1124D091AC063B
:103850008D17A8F5D81BD69580EBC82E8FE0D82EF3
:1038600083E0E82EEF18F12CC70183559B4F7C01B4
:103870008BE696E00E94BE1B0FEB11E0262D4091D7
:10388000AC066C2F8BE696E00E94C9150C2F080F32
:10389000D0926E06C0926D062FEB31E0402F6D2F57
:1038A0008BE696E00E940D141D2F180F972D80E3D4
:1038B000943638F094568F5FFBCFC0E0A2CFD0E0B3
:1038C000CBCF8093AD0480E39A3018F09A508F5F8D
:1038D000FBCF8093AE0480E391113CC08093AF0492
:1038E0001092B004D0926E06C0926D069701402FE0
:1038F000612F8BE696E00E940D14D0926E06C09266
:103900006D06612F680F9401402F8BE696E00E94B0
:103910000D148BE696E00E94941B182F8111ACCFFA
:103920008BE696E00E948C0D8035B9F4F50170822B
:1039300011E0812FDF91CF911F910F91FF90EF90B8
:10394000DF90CF90BF90AF909F908F907F906F90BF
:103950005F90089591508F5FBFCF833551F38135CC
:1039600011F0843531F4751410F411E0170D712E37
:103970007FCF823511F0853599F6152D7720B9F373
:103980001FEFF4CF2F923F924F925F926F927F92F0
:103990008F929F92AF92BF92CF92DF92EF92FF925F
:1039A0000F931F93CF93DF9300D000D01F92CDB71A
:1039B000DEB74C015B013A013D832C831092C606B1
:1039C0008CE296E09093B9068093B806D090E0061A
:1039D0008091E1069D2D981B9983C4010E946A0D78
:1039E000FF24F394A114B10411F092E0F92EF80E23
:1039F000C3010E946A0D8F0D9981899F802D11242A
:103A00008D5F9091AD06891708F04DC0981B892FE6
:103A10008695D80EDA82F12C80EB482E8FE0582E56
:103A20008BE696E00E94BE1B840129814091AC0682
:103A30006A818BE696E00E94C915DA80D80EA1143F
:103A4000B10469F0C12CE12C85012091AC064D2D0B
:103A500060E08BE696E00E94E8148981D80E83012D
:103A600029814091AC066D2D8BE696E00E94C91528
:103A70008D0D8D5F8B83D090AC068C819D810E94D3
:103A80006A0DC82E212C312CC2100FC0822D880F38
:103A9000820D880F8650830D8D1508F066C0D81AE8
:103AA000D694312C37C080E0B4CF6C817D81822DDB
:103AB0000E94700D50926E0640926D06BC018BE61E
:103AC00096E00E948D12380E2394DECF6C817D81AA
:103AD000832D0E94700DCC24C394F310C12CEE24CE
:103AE000E3948C0120E04B816D2D8BE696E00E94E3
:103AF000E8146C817D81832D0E94700D50926E06BA
:103B000040926D06BC018BE696E00E948D128A5FA2
:103B1000D80E33942310DACF8BE696E00E94941BE4
:103B2000D82E811181CF8BE696E00E948C0D8035D6
:103B3000F1F4DD24D394DF0C8D2D0F900F900F90B6
:103B40000F900F90DF91CF911F910F91FF90EF9009
:103B5000DF90CF90BF90AF909F908F907F906F90AD
:103B60005F904F903F902F900895D12C9ACF83353E
:103B700019F3982F9B7F913531F4F394F31408F4E3
:103B80004FCFF12C4DCF823511F0843561F6F11015
:103B900001C0F32CFA9444CF5F926F927F928F9280
:103BA0009F92AF92BF92CF92DF92EF92FF920F93CC
:103BB0001F93CF93DF93C82F7B01B090E006B3949F
:103BC0008091E106B81A89E994E00E94600D882E80
:103BD000C111C1508091AD06882009F468C083509E
:103BE000990B6B2D70E00E94A32FA62EA818C70179
:103BF0000E946A0D982EC81710F0CFEFC80FCA2C7C
:103C0000D12C5C2E5A185394CA1508F4512C8CE20E
:103C100096E09093B9068093B8067724739466244F
:103C20006A94690C8BE696E00E94BE1BD091E00678
:103C30008820D1F009E914E02B2D4091AC066D2FBE
:103C40008BE696E00E94C915D80F8091E106472DBA
:103C5000481B4B194D0F00E02091AC0660E08BE64D
:103C600096E00E94D610DD5F10E0A11228C08BE61E
:103C700096E00E94941BD82F8111D8CF8BE696E056
:103C80000E948C0D803529F5D1E0DC0F8D2FDF915E
:103C9000CF911F910F91FF90EF90DF90CF90BF9049
:103CA000AF909F908F907F906F905F9008956B2D55
:103CB0000E94972FA82E9BCFC0E05D2EB3CF452D3D
:103CC000410F97016D2F8C2F0E940316D80F1F5F95
:103CD000CCCF8335D9F2982F9B7F913589F4CF5F74
:103CE000C91550F78C2F90E001969601250D311DD6
:103CF000D72DD11BDC0F82179307FCF6D52DDDCF16
:103D0000823519F0843509F0B9CFC11107C0C62D2D
:103D1000D92DD11B191588F2D0E0CFCFC150D52DA8
:103D2000C51558F6DC2FC9CF2F923F924F925F9264
:103D30006F927F928F929F92AF92BF92CF92DF92BB
:103D4000EF92FF920F931F93CF93DF93CDB7DEB720
:103D500062970FB6F894DEBF0FBECDBF80917F0390
:103D60008823E1F0813009F498C162960FB6F89487
:103D7000DEBF0FBECDBFDF91CF911F910F91FF909E
:103D8000EF90DF90CF90BF90AF909F908F907F90FB
:103D90006F905F904F903F902F9008958BE696E044
:103DA0000E94BE1B2AE0622E34E1B32E1AE54EE1DA
:103DB000A42E58E2952E62E3862E7CE3772E81E0D6
:103DC0008093C30662E08BE696E00E94D1100BE080
:103DD00020E840E060E08BE696E00E94C114E4E059
:103DE000E093E8066092E9066CED71E089E994E001
:103DF0000E94772B89E994E00E94AC191092E806A2
:103E0000B092E90666E271E089E994E00E94772BBE
:103E100089E994E00E94AC191093E806B092E90693
:103E200060916E0370E090E080E04AE00E94B91972
:103E30001092E806A092E90667E171E089E994E052
:103E40000E94772B89E994E00E94AC191093E80650
:103E5000A092E90660916F0370E090E080E04AE094
:103E60000E94B91980EC91E00E94AC196091700336
:103E700070E090E080E04AE00E94B9191092E806F4
:103E80009092E90668E071E089E994E00E94772B5E
:103E900089E994E00E94AC191093E8069092E90633
:103EA000609171037091720390E080E04AE00E949B
:103EB000B9191092E8068092E90669EF70E089E985
:103EC00094E00E94772B89E994E00E94AC1910934A
:103ED000E8068092E906C0907303D0907403E090E6
:103EE0007503F0907603A7019601C701B6010E9401
:103EF0005D2E8823D1F184EC91E00E94AC191092E0
:103F0000E8067092E9066AEE70E089E994E00E94A2
:103F1000772B89E994E00E94AC191093E80670921F
:103F2000E906E0917703509178033091790320916D
:103F30007A03CE2ED52EE32EF22EF7FEA8C06DE228
:103F400087E696E00E94D91866277727CB016C197F
:103F50007D098E099F094AE00E94B9198BE696E017
:103F60000E94941B81112BCF00CF16012701E894EA
:103F700057F82FEF3FEF4FE75FE7C201B1010E9413
:103F80005D2E81110DC02FEF3FEF4FE75FE7C201BC
:103F9000B1010E947E2B18161CF488EC91E0ADCF85
:103FA0002FEF3FEF4FE75FE4C701B6010E94082EF5
:103FB00018161CF48CEC91E0A0CF2FEF3FEF4FE7E9
:103FC0005FECC701B6010E947E2B87FDF3CF20E096
:103FD00030E0A901C701B6010E947E2B87FF09C00E
:103FE0006DE287E696E00E94D918F7FAF094F7F8A8
:103FF000F0942AE037ED43EA5BE3C701B6010E9483
:10400000F42C1B012C010E94D92D6B017C010E9414
:10401000832B9B01AC01C201B1010E94F32C1B0157
:104020002C014AE0C701B6010E94B9196EE287E689
:1040300096E00E94D91820E030E040E251E4C2014D
:10404000B1010E94E42B1B012C010E94D92D6B01B0
:10405000F12CE12C4AE0C701B6010E94B919C70151
:10406000B6010E94832B9B01AC01C201B1010E94E9
:10407000F32C20E030E040E251E40E94E42B0E9467
:10408000D92D90E080E04AE00E94B91938CF4AE08B
:104090006E2F752F832F922F5FCF0E94D3176CED59
:1040A00071E089E994E00E94772B60ED71E08091E6
:1040B00000010E94CC1D182F809300010E94D3178D
:1040C0001150183080F4E12FF0E0E759FF4D0C94C7
:1040D000F82F712076208120E12048212C22F22225
:1040E000442310927F030E94D3173FCE22E032E098
:1040F00049E152E065E272E08EE292E00E94C21C69
:10410000F2CF1D861F82198265E371E089E994E090
:104110000E94772B63E372E08E2D0E94CC1DE82E67
:104120000E94D317F3E0EF16A1F1FE15A0F081E095
:10413000E816C9F2E2E0EE12E7CF2FEB31E042E001
:104140006AE0CE010D960E94D01B6D8570E089E07B
:104150000E94920AD9CFF4E0EF1639F185E0E81217
:10416000D3CF25E432E04FEB51E060E572E0CA01C5
:104170000E94C21C813041F670E060E089E00E943C
:10418000920A70E060E08AE00E94920A70E060E0CB
:1041900016C02FEB31E042E06AE0CE0107960E94A4
:1041A000D01B6F8170E08AE0D3CF2FEB31E042E08B
:1041B0006AE0CE0101960E94D01B698170E08BE01D
:1041C000C7CF84E0898314E669E371E089E994E06C
:1041D0000E94772B64E572E08F2D0E94CC1DF82E93
:1041E0000E94D317E3E0FE1699F1EF1538F1F1E0E4
:1041F000FF1609F478CF82E0F812E6CF8EE00E9435
:104200006D0761E0892B09F060E08EE00E9496075F
:1042100025E432E04FEB51E066E772E0CA010E940C
:10422000C21C813089F68EE00E946D0761E0892B07
:1042300009F060E08EE00E949607C6CFE4E0FE162B
:10424000F1F0F5E0FF12C0CF8EE00E94C407BCCFB2
:104250006981619FB001112420E030E0A9018EE066
:104260000E942C0825E432E04FEB51E066E772E053
:10427000CA010E94C21C813009F0A6CFE5CF2BE70E
:1042800032E042E068E2CE0101960E94D01BDCCF12
:104290008AE0898319E160E471E089E994E00E9491
:1042A000772B61E872E08C2D0E94CC1DC82E0E94F5
:1042B000D317EFEFEC0DE73070F7F0E0EE59FE4D5D
:1042C0000C94F82F7320692172219B21C221E921CE
:1042D00010222FEB31E042E06AE0CE0101960E940D
:1042E000D01BD9CF6981619FB00111248AE00E945F
:1042F000920A70E060E089E00E94920A70E060E05B
:1043000086E00E94920A70E060E085E00E94920AD6
:1043100025E432E04FEB51E066E772E088EA92E094
:104320000E94C21C813009F0B6CF70E060E08AE0E4
:104330000E94920AB0CF70E060E08AE00E94920A88
:104340006981619FB001112489E00E94920A70E0A6
:1043500060E086E00E94920A70E060E085E00E94E2
:10436000920A25E432E04FEB51E066E772E08EEA14
:1043700092E00E94C21C813009F08DCF70E060E0B5
:1043800089E0D6CF70E060E08AE00E94920A70E097
:1043900060E089E00E94920A6981619FB001112466
:1043A00086E00E94920A70E060E085E00E94920A36
:1043B00025E432E04FEB51E066E772E084EB92E0F7
:1043C0000E94C21C813009F066CF70E060E086E098
:1043D000AFCF70E060E08AE00E94920A70E060E097
:1043E00089E00E94920A70E060E086E00E94920AF2
:1043F0006981619FB001112485E00E94920A25E441
:1044000032E04FEB51E066E772E08AEB92E00E9407
:10441000C21C813009F03FCF70E060E085E088CFBA
:1044200025E432E04FEB51E060E572E0CA010E9402
:10443000C21C813009F02FCF70E060E08AE00E945A
:10444000920A70E060E089E00E94920A70E060E009
:1044500086E00E94920AE0CF198290E8292E312C42
:1044600067EC71E089E994E00E94772B60EC72E0E0
:104470008B2D0E94CC1DB82E0E94D31782E0B81657
:10448000F1F08B1528F0E1E0BE1609F42CCEE8CF50
:10449000F3E0BF1609F45EC084E0B812E1CF25E472
:1044A00032E04FEB51E060E572E0CA010E94C21CAD
:1044B0008130B1F690E080E00E948419D1CF2FEBDB
:1044C00031E043E06FEFCE0101960E94D01BC9801E
:1044D00090E080E00E9484190DEF15E0A12CD12C12
:1044E000F12CE12C6A2D70E090E080E00E94832B9B
:1044F0009B01AC0160E070E080E291E40E940D2E2F
:104500002B013C01A39480915306909154061816F8
:104510001906D4F4C701B6010E94832BA3019201AE
:104520000E94602D0E94D22DCB016AE070E00E94B3
:10453000A32FFC01E95BFE4F4491F801408B6A2DEB
:1045400090E080E00E9427190F5F1F4FF8E0AF1244
:10455000C9CF86CF25E432E04FEB51E06EED72E03B
:10456000CA010E94C21C813009F07ACF90E080E03D
:104570000E9484198DEF882E85E0982E11E0712C11
:10458000612C62E370E080E090E00E94260B809155
:104590005306909154061816190684F4F4014089C4
:1045A000C101062C02C0959587950A94E2F7482B25
:1045B000408B612F90E080E00E94271962E370E059
:1045C00080E090E00E94260BFFEF6F1A7F0A88E0E0
:1045D00068167104B1F6EFEF8E1A9E0A1F5F19304C
:1045E00071F63ECF6FEB71E0CE010D960E94A41ADA
:1045F0006FEC71E089E994E00E94772B63EE72E042
:104600008D2D0E94CC1DD82E0E94D317F2E0DF160C
:10461000A9F1FD1540F081E0D812EACFCE010D9648
:104620000E94481A60CDE3E0DE1659F1F4E06AE03A
:1046300073E0DF12DDCFCE0107960E94A41ABE01FF
:10464000695F7F4FCE0101960E94D51ABE016F5F50
:104650007F4FCE010D960E94FD19CE0101960E945A
:10466000481ACE0107960E94481A2FEB31E0A901A3
:10467000B9018D859E850E94C21CBACF6DEF72E094
:10468000DACF62E073E0D7CF6FEB71E0CE010D9629
:104690000E94A41A64ED71E089E994E00E94772BEE
:1046A0006FE073E0802F0E94CC1D082F0E94D3176B
:1046B000033091F150F5013009F4B0CF65E373E0B8
:1046C000023041F7CE0107960E94A41ABE01695F2D
:1046D0007F4FCE0101960E94D51ABE016F5F7F4FBA
:1046E000CE010D960E94FD19CE0101960E94481A36
:1046F000CE0107960E94481A2FEB31E0A901B901BB
:104700008D859E850E94C21CC5CF043041F064E4B3
:1047100073E00530B9F2BECF6AE373E0D3CF6FE345
:1047200073E0D0CF1F920F920FB60F9211242F93E8
:104730003F934F935F936F937F938F939F93AF9329
:10474000BF93EF93FF938091910490919204A09175
:104750009304B0919404892B8A2B8B2BD1F19091E7
:104760009004E0918E04F0918F04808189278083EA
:104770008091910490919204A0919304B09194043B
:10478000181619061A061B069CF480919104909144
:104790009204A0919304B09194040197A109B109E6
:1047A0008093910490939204A0939304B093940403
:1047B000FF91EF91BF91AF919F918F917F916F91F9
:1047C0005F914F913F912F910F900FBE0F901F90CF
:1047D0001895809101010E94C407EACF1F920F92A1
:1047E0000FB60F9211242F933F934F935F936F93C4
:1047F0007F938F939F93AF93BF93EF93FF9381EB3F
:1048000094E00E94B506FF91EF91BF91AF919F9107
:104810008F917F916F915F914F913F912F910F9069
:104820000FBE0F901F9018951F920F920FB60F9208
:1048300011242F938F939F93EF93FF93E091C104E3
:10484000F091C2048081E091C704F091C80482FD18
:104850001BC090818091CA048F5F8F732091CB041D
:10486000821741F0E091CA04F0E0EF54FB4F958FBE
:104870008093CA04FF91EF919F918F912F910F9098
:104880000FBE0F901F9018958081F4CF1F920F924A
:104890000FB60F9211242F933F938F939F93AF9353
:1048A000BF9380917C0490917D04A0917E04B0918F
:1048B0007F0430917B0423E0230F2D3758F50196B8
:1048C000A11DB11D20937B0480937C0490937D04F3
:1048D000A0937E04B0937F04809180049091810422
:1048E000A0918204B09183040196A11DB11D809313
:1048F000800490938104A0938204B0938304BF91B9
:10490000AF919F918F913F912F910F900FBE0F907C
:104910001F90189526E8230F0296A11DB11DD2CF36
:104920001F920F920FB60F9211242F933F934F9324
:104930005F936F937F938F939F93AF93BF93EF9307
:10494000FF93E0910401F09105010995FF91EF912A
:10495000BF91AF919F918F917F916F915F914F9197
:104960003F912F910F900FBE0F901F9018951F929F
:104970000F920FB60F9211242F933F934F935F9393
:104980006F937F938F939F93AF93BF93EF93FF9317
:10499000E0910201F09103010995FF91EF91BF9120
:1049A000AF919F918F917F916F915F914F913F91C7
:1049B0002F910F900FBE0F901F9018951F920F927E
:1049C0000FB60F9211242F933F934F935F936F93E2
:1049D0007F938F939F93AF93BF93EF93FF938091B8
:1049E000B900887F803609F44AC0F0F5883209F4AE
:1049F000A7C018F5803109F49BC0B8F4882309F4E6
:104A0000F9C0883009F494C0FF91EF91BF91AF9144
:104A10009F918F917F916F915F914F913F912F91D6
:104A20000F900FBE0F901F901895883109F488C021
:104A3000803251F78093540414C0803409F49DC02F
:104A400040F48033B9F38833F9F68093540485EC4D
:104A5000B0C0803509F485C0883509F496C0883423
:104A600099F60E94471BD0CF883909F48CC038F5DD
:104A7000883729F050F4883611F0803729F683E022
:104A8000809355041092530457C0883809F47BC0B2
:104A9000803919F0803809F0B7CF80915304803203
:104AA00008F071C0E091530481E08E0F80935304AD
:104AB0008091BB00F0E0ED5CFB4F80833DC0803B0C
:104AC00039F0E0F4803A09F479C0883A09F09CCFD3
:104AD00084E0809355041092300410922F04E091EA
:104AE0002D04F0912E04099580912F0481110FC09F
:104AF00081E080932F0410920D0409C0803C09F4DA
:104B0000A6CF883C09F4A3CF883B09F07DCFE09184
:104B1000300481E08E0F80933004F0E0E35FFB4FC0
:104B200080818093BB009091300480912F0429C034
:104B300080917A048093BB0085EC8093BC0064CFA5
:104B40009091790480917804981758F5E091790450
:104B500081E08E0F80937904F0E0E85AFB4F80816A
:104B6000E9CFE091790481E08E0F80937904809100
:104B7000BB00F0E0E85AFB4F80839091790480916C
:104B800078049817C8F285E8D8CFE091790481E0DD
:104B90008E0F809379048091BB00F0E0E85AFB4FC0
:104BA00080838091570481115CCF81E0809356040B
:104BB00084EA8093BC001092550426CF85EC809344
:104BC000BC001092550480915304803230F4E0917F
:104BD0005304F0E0ED5CFB4F10826091530470E0F1
:104BE000E0913104F091320483E394E0099510924E
:104BF00053040ACF1092540434CF1F920F920FB671
:104C00000F9211242F933F934F935F936F937F9352
:104C10008F939F93AF93BF93EF93FF93E09197048C
:104C2000F0919804309749F0A685B7858585968DD3
:104C300091FF14C09C918923A1F4FF91EF91BF9142
:104C4000AF919F918F917F916F915F914F913F9124
:104C50002F910F900FBE0F901F9018959C91892354
:104C600061F7A389B4899C918589809589238C9368
:104C7000868997890197F1F7608D718DA685B78533
:104C8000558538E020E0CB010197F1F7822F90E0C5
:104C900095958795282F4C91452309F02068315030
:104CA00091F7868D81FD20958091960490E0019684
:104CB0008F73992730919504381799F0A091960435
:104CC000B0E0AE57BC4F2C9380939604828D938DA9
:104CD0000197F1F7A389B4898C919589892B8C93DD
:104CE000ACCF868D8160868FF1CFCF93DF9310920A
:104CF000B4041092B30488EE93E0A0E0B0E0809397
:104D0000B5049093B604A093B704B093B80425E714
:104D100031E03093B2042093B10425EC30E03093BD
:104D2000BE042093BD0424EC30E03093C0042093F3
:104D3000BF0420EC30E03093C2042093C10421EC86
:104D400030E03093C4042093C30422EC30E030936D
:104D5000C6042093C50426EC30E03093C8042093A9
:104D6000C7041092CA041092CB041092CC04109283
:104D7000CD041092510510925005809352059093E6
:104D80005305A0935405B093550587E891E090939F
:104D90004F0580934E051092F9061092FA06109274
:104DA000FB061092FC061092FD061092FE06109271
:104DB000FF0610920007109201071092020710924E
:104DC0000307109205071092040781E08093F8060C
:104DD0001092EB061092EC061092ED061092EE0681
:104DE0001092EF061092F0061092F1061092F20661
:104DF0001092F3061092F4061092F5061092F70640
:104E00001092F6068093EA0610926A0610926906DE
:104E10008FEB95E09093E7068093E6061092E80604
:104E20001092E906109283068BEA91E0909368064F
:104E30008093670610926C0610926B0610928006A3
:104E400010927706109278061092790610927A06E0
:104E50008FEF8093810680938506E9E8F6E08FE97D
:104E600096E0CFEFC1938E179F07E1F781E59EE0B3
:104E70009093700680936F0686E49FE0909372068D
:104E8000809371068FE296E1909374068093730687
:104E900089E59BE0909376068093750630E020E0EC
:104EA00040E069E08BE696E00E94510E1092B70652
:104EB0001092B60689EC95E09093A00680939F0629
:104EC0008EE595E09093A4068093A30681E08093FD
:104ED000A5061092A6061092C3061092E3068093D0
:104EE000E4068093E50683EB91E09093A20680931D
:104EF000A1068BE696E00E94FD0F1092B20610927A
:104F0000B406C093B306C093B506E091A106F09134
:104F1000A2060280F381E02D8BE696E009958CE2F3
:104F200096E09093B9068093B8061092C606C09397
:104F3000940683E18093950682E18093960662E071
:104F400082E00E94F00762E083E00E94F007E8E35D
:104F5000F2E0E491F0E0EE0FFF1FE45DFD4FA5915C
:104F6000B491B0935C06A0935B06EAE1F2E0449151
:104F700040935F06E9E3F2E0E491F0E0EE0FFF1FFB
:104F8000E45DFD4FC591D491D0935E06C0935D065C
:104F9000EBE1F2E0E491E093600610926206109279
:104FA000630610926406109265062BE33FE1C90187
:104FB0000197F1F79C91842F892391E009F490E007
:104FC0008881E82309F092602BE536E09093610632
:104FD00030935B0520935A058DE298E1909303018D
:104FE00080930201809169008C7F816080936900C9
:104FF000E89A81E08093660630935D0520935C0516
:1050000083E398E190930501809304018091690006
:10501000837F846080936900E99A82E080936606CA
:105020001092560682E390E090935A0680935906B8
:105030008EE08093550688EB91E09093580680931C
:10504000570661E08EE00E94F007C1E1D0E0D09306
:105050004E06C0934D068FE090E0909350068093EB
:105060004F0680E190E0909352068093510681E0D4
:1050700090E0909354068093530661E081E10E9492
:10508000F00761E080914F060E94F00761E0809197
:1050900051060E94F00761E0809151060E94960738
:1050A000D0934E06C0934D06EDE0F6E08DE496E019
:1050B00011928E179F07E1F7D0E0C0E08091530670
:1050C00090915406C817D9073CF540E06FE0CE0137
:1050D0000E9427198091530690915406C817D9074A
:1050E0002CF447E06BE0CE010E94271940E069E014
:1050F000CE010E942719CE010E9484198091530687
:1051000090915406C817D9072CF440E06CE0CE010A
:105110000E9427192196D2CF1092E1051092E00546
:1051200088EE93E0A0E0B0E08093E2059093E30581
:10513000A093E405B093E50589E991E09093DF053C
:105140008093DE051092F5051092F4051092F70594
:105150001092F6051092F9051092F8051092FB05D1
:105160001092FA056091FC056E7F6D7F6093FC05DF
:105170006695617081E0682787E00E94960761E08C
:1051800087E00E94F007EFE1F2E0E491E093EE05A2
:10519000EDE3F2E0E491F0E0EE0FFF1FE25FFD4F80
:1051A000859194919093F0058093EF0560E088E0FD
:1051B0000E94F0078091FC0581FD04C061E088E059
:1051C0000E94960788E08093EA05E0E2F2E0E4912D
:1051D000E093EB05EEE3F2E0E491F0E0EE0FFF1F69
:1051E000E45DFD4F859194919093ED058093EC05DE
:1051F000DF91CF910895789484B5826084BD84B5A1
:10520000816084BD85B5826085BD85B5816085BDC1
:1052100080916E00816080936E0010928100809179
:105220008100826080938100809181008160809301
:105230008100809180008160809380008091B10026
:1052400084608093B1008091B00081608093B00051
:1052500080917A00846080937A0080917A008260E5
:1052600080937A0080917A00816080937A008091A7
:105270007A00806880937A001092C100E091C104A6
:10528000F091C20482E08083E091BD04F091BE04FD
:105290001082E091BF04F091C0048FEC80831092E3
:1052A000C904E091C504F091C60486E08083E091D2
:1052B000C304F091C404808180618083E091C304C1
:1052C000F091C404808188608083E091C304F091F0
:1052D000C404808180688083E091C304F091C40499
:1052E00080818F7D80831092F9051092F8051092CD
:1052F000F7051092F6051092F5051092F4058DE968
:1053000091E09093FB058093FA059091EA05963120
:1053100008F047C02DEB30E03093F5052093F405FD
:105320002BE931E03093F7052093F6052CE231E0CC
:105330003093F9052093F8052091680084E09830B7
:1053400048F031E09E3008F430E081E001C0880F81
:105350003A95EAF7822B809368002DE630E098308A
:1053600050F02BE630E09E3030F02CE630E0963105
:1053700010F030E020E03093F2052093F105292F62
:1053800030E0983008F06FC181E001C0880F9A9535
:10539000EAF78093F3058091FA059091FB05019758
:1053A000F1F78091F8059091F905892B49F1E09189
:1053B0009704F091980425E0EE3DF20709F130974B
:1053C00039F0A389B4899C918589809589238C9330
:1053D0008091FC058E7F8093FC05109296041092BC
:1053E00095048EED95E09093980480939704E09156
:1053F000F105F091F20580819091F305892B80836E
:1054000084E08093990683E080939A0682E08093FB
:105410009B068FEF80939D0680939E0680939C064B
:10542000E0916F06F091700630E020E040E06AE025
:105430008BE696E009958BE696E00E94BE1B8BE614
:1054400096E00E94941B8111FACF60E08BE696E013
:105450000E945214E0916F06F091700630E020E057
:1054600040E06BE08BE696E009958091B60690915E
:10547000B7068A54924009F495C0EAE4F2E0F0934A
:10548000B706E093B606E491E093C706EBE4F2E0DA
:10549000E491E093C806ECE4F2E0E491E093C906FD
:1054A000EDE4F2E0E491E093CA06EEE4F2E0E49188
:1054B000E093CB06EFE4F2E0E491E093CC06E0E584
:1054C000F2E0E491E093CD06E1E5F2E0E491E093CF
:1054D000CE06E2E5F2E0E491E093CF06E3E5F2E008
:1054E000E491E093D006E4E5F2E0E491E093D106A4
:1054F000E5E5F2E0E491E093D206E6E5F2E0E4913E
:10550000E093D306E7E5F2E0E491E093D406E8E522
:10551000F2E0E491E093D506E9E5F2E0E491E0936E
:10552000D606EAE5F2E0E491E093D70661E18AE489
:1055300092E00E9415129093D9068093D80663E1F9
:105540008AE492E00E9415129093DB068093DA06BB
:1055500065E18AE492E00E9415129093DD06809343
:10556000DC068091B6069091B706892BD9F0809120
:10557000D4068093E0064091D5064093E1069091D1
:10558000DF06992379F0913009F07AC09091D60620
:10559000891714F49093E0068091D706841714F4C9
:1055A0008093E10680EB9FE09093E7068093E60608
:1055B0004AE050E060E070E040930007509301073C
:1055C00060930207709303079FEF9093FA0624E914
:1055D0003EE1309305072093040781E08093F906AC
:1055E0004093F2065093F3066093F4067093F50629
:1055F0009093EC0629E338E13093F7062093F60602
:105600008093EB0680915306909154061816190664
:1056100034F441E06CE090E080E00E942719809132
:105620005306909154061816190634F444E06AE0C3
:1056300090E080E00E94271990E080E00E948419A9
:10564000C0E0D0E08AEE96E00E949A1788EF96E0DC
:105650000E949A172097B1F30E94A106882391F324
:105660000E940000EFCF9E3040F42850310981E0C5
:1056700001C0880F2A95EAF78CCE2E503109F7CF5A
:105680003091D1062091D306082E000C990B622F81
:10569000022E000C770B630F711D37FD7A9586176C
:1056A00097071CF4320F3093E00624170CF07ACFE2
:1056B0002093E10677CF89E991E09093DF0580930D
:1056C000DE0580919704909198048E5D954071F469
:1056D000E091F105F091F20590818091F3058095BC
:1056E0008923808310929804109297040895FB01F7
:1056F000DC0105900D920020E1F708950E94C02B77
:1057000008F481E00895E89409C097FB3EF4909571
:105710008095709561957F4F8F4F9F4F9923A9F08A
:10572000F92F96E9BB279395F69587957795679519
:10573000B795F111F8CFFAF4BB0F11F460FF1BC05D
:105740006F5F7F4F8F4F9F4F16C0882311F096E9F0
:1057500011C0772321F09EE8872F762F05C066239E
:1057600071F096E8862F70E060E02AF09A95660F57
:10577000771F881FDAF7880F9695879597F9089510
:10578000990F0008550FAA0BE0E8FEEF1616170652
:10579000E807F907C0F012161306E407F50798F0BA
:1057A000621B730B840B950B39F40A2661F0232BD3
:1057B000242B252B21F408950A2609F4A140A6954F
:1057C0008FEF811D811D08950E94F72B0C94682C8A
:1057D0000E945A2C38F00E94612C20F0952311F081
:1057E0000C94512C0C94572C11240C949C2C0E943A
:1057F000792C70F3959FC1F3950F50E0551F629F70
:10580000F001729FBB27F00DB11D639FAA27F00D19
:10581000B11DAA1F649F6627B00DA11D661F829F40
:105820002227B00DA11D621F739FB00DA11D621F25
:10583000839FA00D611D221F749F3327A00D611D42
:10584000231F849F600D211D822F762F6A2F112424
:105850009F5750409AF0F1F088234AF0EE0FFF1F57
:10586000BB1F661F771F881F91505040A9F79E3FAE
:10587000510580F00C94512C0C949C2C5F3FE4F368
:10588000983ED4F3869577956795B795F795E79504
:105890009F5FC1F7FE2B880F911D9695879597F90D
:1058A000089597F99F6780E870E060E008959FEFA2
:1058B00080EC089500240A941616170618060906A7
:1058C000089500240A941216130614060506089576
:1058D000092E0394000C11F4882352F0BB0F40F4FE
:1058E000BF2B11F460FF04C06F5F7F4F8F4F9F4F3E
:1058F000089557FD9058440F551F59F05F3F71F0C0
:105900004795880F97FB991F61F09F3F79F0879526
:105910000895121613061406551FF2CF4695F1DFAF
:1059200008C0161617061806991FF1CF869571053F
:10593000610508940895E894BB2766277727CB0173
:1059400097F908950E94E42CA59F900DB49F900DA7
:10595000A49F800D911D112408952F923F924F9284
:105960005F926F927F928F929F92AF92BF92CF92EF
:10597000DF92EF92FF920F931F93CF93DF93CDB7F8
:10598000DEB7CA1BDB0B0FB6F894DEBF0FBECDBF70
:1059900009942A88398848885F846E847D848C8441
:1059A0009B84AA84B984C884DF80EE80FD800C814A
:1059B0001B81AA81B981CE0FD11D0FB6F894DEBF2D
:1059C0000FBECDBFED010895A29FB001B39FC001EE
:1059D000A39F700D811D1124911DB29F700D811D1B
:1059E0001124911D08955058BB27AA270E940B2D02
:1059F0000C94682C0E945A2C38F00E94612C20F0E4
:105A000039F49F3F19F426F40C94572C0EF4E095CA
:105A1000E7FB0C94512CE92F0E94792C58F3BA170C
:105A2000620773078407950720F079F4A6F50C94B4
:105A30009B2C0EF4E0950B2EBA2FA02D0B01B90173
:105A400090010C01CA01A0011124FF27591B99F0F4
:105A5000593F50F4503E68F11A16F040A22F232F00
:105A6000342F4427585FF3CF469537952795A79550
:105A7000F0405395C9F77EF41F16BA0B620B730BF7
:105A8000840BBAF09150A1F0FF0FBB1F661F771F68
:105A9000881FC2F70EC0BA0F621F731F841F48F41D
:105AA000879577956795B795F7959E3F08F0B0CFA6
:105AB0009395880F08F09927EE0F9795879508958D
:105AC0000E94742D0C94682C0E94612C58F00E9446
:105AD0005A2C40F029F45F3F29F00C94512C5111BD
