:020000040000FA
:100000000C9495050C9405250C94DE240C944B2639
:100010000C944B260C944B260C94BD050C94E023B9
:100020000C94BD050C94BD050C94BD050C94BD0548
:100030000C94BD050C94BD050C94BD050C94BD0538
:100040000C9494240C94BD050C9462240C943C24D0
:100050000C94BD050C94BD050C94BD050C94BD0518
:100060000C942C250C94BD0507634236B79BD8A78A
:100070001A39685618AEBAAB558C1D3CB7CC5763CD
:10008000BD6DEDFD753EF6177231BF000000803F7B
:1000900008000000BE922449123EABAAAA2ABECD97
:1000A000CCCC4C3E00000080BEABAAAAAA3E000009
:1000B0000000BF000000803F000000000008417801
:1000C000D3BB4387D1133D190E3CC3BD4282AD2B38
:1000D0003E68EC8276BED98FE1A93E4C80EFFFBE30
:1000E00001C4FF7F3F000000000052756E2054697C
:1000F0006D65202020203A200054656D7065726186
:1001000074757265203A2000506F74656E74696F63
:100110002F4C44523A200054616374205377697421
:100120006368203A2000456E636F6465722020206A
:1001300020203A20005247420042757A7A657200C8
:100140004D5831353038007E306D79335B5F707FCC
:100150007B771F0D3D4F47000000000000000000AE
:10016000000000000000000000000000000000008F
:10017000000000800180007E306D79335B5F707F0E
:100180007B00000000000000771F0D3D4F47003747
:100190000000000E000000670000000000000000EA
:1001A0000000000000000800771F0D3D4F4700379A
:1001B0000000000E00151D67000000000000000098
:1001C000000000000000004D41583732313900482E
:1001D0004330350053494D3830306C0041726475FE
:1001E000696E6F20547261696E657220443100003F
:1001F000000000240027002A00000000080002017F
:1002000000000304070000000000000000020000DE
:100210000000250028002B00010204081020408067
:100220000102040810200102040810200000000050
:100230002300260029000404040404040404020228
:1002400002020202030303030303E00003020304A8
:10025000030404060B00FE07FE08FF013E028108AE
:10026000BE200500A203210739A363500222079B89
:10027000B623B104230B2DAAA732289541A9002447
:100280000E4D9E2B5B2A4AB6254A658B00250E3DF6
:10029000A26750125312294A222500260C3DA2477C
:1002A000AAD42A89142901270519B7632808CB9EE7
:1002B0002B29752B2909CB9E232B7529012A0A2D61
:1002C000AAAB52599A22002B0A2DA62B8C06298CF8
:1002D000002C08A29A634814002D058BAE632E06ED
:1002E00012A363082F0C559AB3166661166661084F
:1002F000300C3DA267C9A42599B4640131093DA21F
:100300002B1A3B0D02320A3DA267C9C2AC6D1033F5
:100310000B3DA267C9C248D59205340C3DA22F936C
:1003200092523268D900350B3DA2E338A4A1962C35
:1003300000360C3DA267098724B3250B00370A3D20
:10034000A263106BC51200380C3DA267C9B464C922
:10035000B46401390C3DA267C96CC910260B003A80
:10036000082AA3638886003B09BA9A6388864401F9
:100370003C07BCA22F6A6C3D081DAA635007013ED2
:1003800008BCA2236C6A033F0B3DA267C9C2AC0E36
:100390004500400D3DA267C994214994211D0241A9
:1003A0000C3DA22B4BA2A4360C9916420D3DA26324
:1003B00048326D50326D5000430A3DA267C9C4B641
:1003C0006401440A3DA26348326F8302450B3DA29B
:1003D000E3180E49180E02460A3DA2E3180E4958CA
:1003E00004470B3DA267C9C468D39205480A3DA2E1
:1003F00023B30D43660B490A3DA26390C24E8300AE
:100400004A093DA2B351D392054B0C3DA2239392CE
:10041000929644952C4C083DA223EC71104D0C3D56
:10042000A2235B964449345B004E0B3DA2239B9470
:1004300044DA6C014F0A3DA267C9BC250B00500C81
:100440003DA26348326D50C22200510A459E67C9E1
:10045000BC54D600520C3DA26348326D50325B0052
:10046000530B3DA267C9D4554B160054093DA263F6
:1004700090C29E0055093DA223F32D5900560C3D14
:10048000A223B325A5240B2300570A3DA2237349B9
:1004900094E416580B3DA223D3925AA5A605590AF7
:1004A0003DA223B325B5B0045A0A3DA26310B38E12
:1004B00083005B084A9F63E98B005C0CD59A234C50
:1004C000C3344CC3340C5D08CA9E43E9CB005E08BC
:1004D0001DB22B4B6A015F060E9AE300600692BACA
:1004E000230A61092DA267D04C8A12620C3DA22317
:1004F0000C8724B30D0A0063092DA267C9C47408D0
:10050000640A3DA2B33268B66408650A2DA267C9C1
:1005100086211D026609BCA24B89A6AC09670C3D69
:100520009A67D06CC910260B00680A3DA2230C877D
:1005300024730B6908BBA227945A066A094B9A2BAD
:10054000943A2D006B0B3DA2232C25A5A992056C96
:1005500007BBA243EA656D0C2DA263482A4AA22478
:100560004A016E092DA2233169B6006F092DA267D9
:10057000C96CC902700C3D9A634832DBA08421002B
:10058000710A3D9A67D06CC9101672092DA22331E9
:1005900089450073092DA267500F0A007409BCA297
:1005A000278BA6AC2875092DA22373529400760BD5
:1005B0002DA223D39252924500770C2DA223499469
:1005C0004449942E00780A2DA2234B6A955A00794B
:1005D0000B3D9A23734B863059007A092DA263D0C4
:1005E000DA06017B0ADB9A2B895AB2A82D7C0649D0
:1005F0009FE3017D0BDB9A238BDA92A825027E060E
:1006000015AEC7057F0500A203800500A203810582
:1006100000A20382071A9E275100830B5D9A4F0A9E
:100620006B5BD8490384081C9EA745490085060DCD
:10063000A223298609ABAA2759A20A008709ABAAD7
:100640002759922501880693BAA701890E46A26709
:10065000585A345149949E92048A0C4DA2A7962D63
:1006600099BA6AC9028B0722A24789028C0E3DA261
:100670006750A2244A9452920D018D0500A2038E68
:100680000500A2038F0500A203900500A2039107B5
:100690001AB347490092071AB327510093089CB236
:1006A00027515A0094089CB2A745490095082DA6E9
:1006B000E7F0650196058BAE6397060EAEE30098F2
:1006C0000615BAC70599091EB263482A4B329A0B20
:1006D00045A2A79623837A50009B0822A2234A149E
:1006E000009C0A2DA2A78B322459229D0500A2034B
:1006F0009E0500A2039F0B4DA2A79CD9925A5802B7
:10070000A00500A203A107B9A3231904A20D3D9ED1
:100710002B5B2A4A9464431401A30C45A247AA8484
:1007200053581B1400A40B2DA2234BA6245AB2002D
:10073000A50D3DA2234B2A83140D521801A608498A
:100740009F63488600A70F559E67C99248897A9192
:10075000922C5900A8068BBA2309A90C3DA2638DDF
:10076000142D51B26402AA0AB4AE6788A4641C02B4
:10077000AB0925A2279292A801AC071DA663100B16
:10078000AD060DAE6310AE0B35A6634D242599144E
:1007900005AF058BBA63B009A4B24789A44401B17F
:1007A0000B35A22B8C06298C0601B208A3B6434B4D
:1007B0009201B308ABB2434BA405B40713BB67481F
:1007C00000B50E3D9A234AA2244AA264114300B602
:1007D0001045A267501225512A439444499404B706
:1007E0000612AB6308B8089B9A63191200B907A3F5
:1007F000B643AA0CBA0AB4AE4789A4441D02BB0989
:1008000025A2236A89A404BC0F4EA243AD0D49580A
:10081000891225591300BD0D4EA243AD0D49184E46
:1008200099160EBE104EA2430EA54AA284499428E2
:10083000C99A00BF0B3DA22B87B262962C00C00E56
:100840004DA2270DB3244A6AC3906901C10D4DA280
:10085000AF982551521B864C0BC20E4DA22B4B72EA
:10086000244B6AC3906901C30D4DA2C7AD1225B5D3
:1008700061C8B400C40E4DA2A78E644994D48621E9
:10088000D302C50D4DA22B4BB24A4D1B864C0BC655
:100890000E3DA26750A2241A9252122503C70B4D97
:1008A0009A67C9C4B664AB01C80D4DA2278D8631C5
:1008B0001C92301C04C90C4DA2AF348CE19084E131
:1008C00020CA0E4DA22B4B92610C87240C0701CB42
:1008D0000C4DA2A73C8CE19084E120CC0B4DA227CB
:1008E0008D0629EC3408CD0A4DA2AF344861A741EA
:1008F000CE0C4DA22B4BE2410A9B0601CF0A4DA222
:10090000A73C4861A741D00D3DA267AA4443524A83
:10091000A26401D10C4DA2C7259B9444DA6C01D28C
:100920000B4DA227CD96CC5BB200D30A4DA2AFB639
:1009300064DE9205D40C4DA22B4B7260C9DC92058B
:10094000D50B4DA2C769C9BC250B00D60B4DA2A77C
:100950000E2C99B76401D70A2DA6234B6A955A002D
:10096000D80C3DA267C9A42599B46401D90A4DA247
:10097000278D32DF9205DA0A4DA2AF94F9962C004A
:10098000DB0B4DA22B4BE2CC5BB200DC0A4DA2A7E5
:100990009CF9962C00DD0B4DA2AF94D9925A5802C7
:1009A000DE0C3DA2231C924C1B943004DF0E4D9EA6
:1009B0004B8A34298992CCA28400E00C45A22BCD2D
:1009C000814133294A00E10B45A2AF8E0C9A49516F
:1009D00002E20C45A22B4B7260D04C8A12E30B450D
:1009E000A2C71D183493A204E40B3DA2A70E0C9AD3
:1009F000495102E50C45A22B4BB26CD04C8A12E651
:100A00000B2DA267A92843920D01E70B3D9A67C9F8
:100A1000C47488B20CE80C45A227CD91251B8674BE
:100A200008E90C45A2AF8E2CD930A44300EA0D454D
:100A3000A22B4B7260C986211D02EB0C3DA2A70EB2
:100A40002CD930A44300EC09C3A2230BA59601EDD9
:100A500009C3A22B09A59601EE08C3A2A74D6A19E6
:100A6000EF09BBA223C9A49601F00C45A24753A3EA
:100A700041B3250B00F10A45A2C7393169B600F22E
:100A80000C45A227CD9125B3250B00F30B45A2AF52
:100A90008E2C992D5900F40C45A22B4B7260C96C19
:100AA000C902F50B45A2C71D58325BB200F60B3DDB
:100AB000A2A70E2C992D5900F70A2DA62B07061D6B
:100AC0008800F80B2DA2678996644A1600F90B4539
:100AD000A227CD81CC495102FA0A45A2AF0E644E3D
:100AE0008A12FB0B45A22B4BE2CC495102FC0A3D7A
:100AF000A2A79C39294A00FD0D559AAF0E646EC914
:100B000010260B00FE0D4D9A230C8724B30D4A18B6
:100B100002FF0C4D9AA79CB92543982C00000000B9
:100B200004FFFF000000C326AC2B11241FBECFEF33
:100B3000D8E0DEBFCDBF27E0AEE4B3E001C01D9238
:100B4000AD30B207E1F713E0A0E0B1E0E2EDF4E68A
:100B500002C005900D92AE34B107D9F715E0C4E993
:100B6000D5E004C02197FE010E944930C339D10766
:100B7000C9F70E9449290C945C320C94000066234A
:100B800029F06A3019F0862F90E008958FEF9FEFDB
:100B90000895CF92DF92EF92FF920F931F93CF931E
:100BA000DF93EC01842F8770E1E0F0E0082E01C0B4
:100BB000EE0F0A94EAF73E2F7E0199E7E90EF11C49
:100BC000D7019C9110E0923018F41E2F913029F13A
:100BD00050E0487FE8ADF9ADC880D980D601509685
:100BE0009C91949F6001959FD00C11246C0D7D2DDC
:100BF000711DDF01A60FB71F011115C08C91812B4C
:100C000083278D932150D1F7DF91CF911F910F91C1
:100C1000FF90EF90DF90CF90089530E0D9CF110F83
:100C2000330F222389F39C91912B93279C938F5F01
:100C3000877021508111F3CF9CADA90FB11DF70131
:100C40009081923028F4913009F031E011E0E9CF41
:100C500031E0E7CF80E0089580E008959B01DC015A
:100C60001896ED91FC9141E067E109940895AF92E7
:100C7000BF92CF92DF92EF92FF920F931F93CF9389
:100C8000DF936C017B018B01040F151FEB015E01EB
:100C9000AE18BF08C017D10759F06991D601ED9180
:100CA000FC910190F081E02DC6010995892B79F71F
:100CB000C501DF91CF911F910F91FF90EF90DF90D1
:100CC000CF90BF90AF900895FC01538D448D252F98
:100CD00030E0842F90E0821B930B541710F0CF96D6
:100CE000089501970895FC01918D828D981761F008
:100CF000A28DAE0FBF2FB11D5D968C91928D9F5F1F
:100D00009F73928F90E008958FEF9FEF0895FC01FD
:100D1000918D828D981731F0828DE80FF11D858DB0
:100D200090E008958FEF9FEF0895FC01918D228D43
:100D3000892F90E0805C9F4F821B91098F739927C8
:100D4000089584EB94E00E94950621E0892B09F434
:100D500020E0822F089580E090E0892B29F00E9406
:100D6000A10681110C9400000895FC01A48DA80F28
:100D7000B92FB11DA35ABF4F2C91848D90E00196DD
:100D80008F739927848FA689B7892C93A089B189FD
:100D90008C91837080648C93938D848D981306C09E
:100DA0000288F389E02D80818F7D80830895EF9202
:100DB000FF920F931F93CF93DF93EC0181E0888F15
:100DC0009B8D8C8D98131AC0E889F989808185FFE5
:100DD00015C09FB7F894EE89FF896083E889F98987
:100DE00080818370806480839FBF81E090E0DF9189
:100DF000CF911F910F91FF90EF900895F62E0B8DDC
:100E000010E00F5F1F4F0F731127E02E8C8D8E1196
:100E10000CC00FB607FCFACFE889F989808185FFFD
:100E2000F5CFCE010E94B506F1CFEB8DEC0FFD2F73
:100E3000F11DE35AFF4FF0829FB7F8940B8FEA89B8
:100E4000FB8980818062CFCFCF93DF93EC01888DC7
:100E50008823B9F0AA89BB89E889F9898C9185FD35
:100E600003C0808186FD0DC00FB607FCF7CF8C91C3
:100E700085FFF2CF808185FFEDCFCE010E94B506C0
:100E8000E9CFDF91CF910895833081F028F481304C
:100E900099F08230A9F008958730A9F08830C9F020
:100EA0008430B1F4809180008F7D03C080918000F8
:100EB0008F7780938000089584B58F7784BD0895DF
:100EC00084B58F7DFBCF8091B0008F778093B00089
:100ED00008958091B0008F7DF9CFCF93DF93282FB5
:100EE00030E0F901E750FE4F8491F901E85EFD4FD3
:100EF000D491F901EA5CFD4FC491CC23A1F081119A
:100F00000E944407EC2FF0E0EE0FFF1FE45DFD4F61
:100F1000A591B491EC91ED2381E090E009F480E09B
:100F2000DF91CF91089580E090E0FACF1F93CF93A7
:100F3000DF93282F30E0F901E750FE4F8491F9014B
:100F4000E85EFD4FD491F901EA5CFD4FC491CC23DA
:100F5000A9F0162F81110E944407EC2FF0E0EE0F4C
:100F6000FF1FE25FFD4FA591B4918FB7F894EC910C
:100F7000111108C0D095DE23DC938FBFDF91CF9194
:100F80001F910895DE2BF8CF9091010189130BC0BA
:100F9000EDE0F2E0E4919FEF90930101E13049F040
:100FA00028F0E23061F060E00C94960710926E0039
:100FB000FACF90916F009D7F90936F00F4CF909146
:100FC00070009D7F9093700091E09093B00090919D
:100FD000B100987F94609093B1001092B300E3CF7A
:100FE000CF93DF9390E0FC01E85EFD4F24918A5C93
:100FF0009D4FFC0184918823C9F090E0880F991FD0
:10100000FC01E151FE4FA591B491FC01E25FFD4F5F
:10101000C591D49161110DC09FB7F8948C91209522
:1010200082238C938881282328839FBFDF91CF91CF
:101030000895623051F49FB7F8943C91822F8095C7
:1010400083238C93E8812E2BEFCF8FB7F894EC910C
:101050002E2B2C938FBFEACF4F925F926F927F928D
:101060008F929F92AF92BF92CF92DF92EF92FF92B8
:101070000F931F93CF93DF9300D000D01F92CDB773
:10108000DEB78B0129013A01909101018917C9F05E
:101090009F3F09F47EC00F900F900F900F900F901C
:1010A000DF91CF911F910F91FF90EF90DF90CF9044
:1010B000BF90AF909F908F907F906F905F904F9078
:1010C0000895EDE0F2E094919D8397FDE4CF61E017
:1010D0000E94F0078D81882321F09D81923009F0D4
:1010E0004AC14801B12CA12C60E072E18AE790E08E
:1010F000A50198010E942A3029833A834B835C839F
:1011000069017A0181E0C81AD108E108F1089FEF6E
:10111000C916D104E104F10409F00CF401C160E442
:1011200072E48FE090E0A50198010E942A306901E5
:101130007A0181E0C81AD108E108F1089D81923056
:1011400009F0A2C08FEFC816D104E104F10409F040
:101150000CF4E6C160E970ED83E090E0A501980130
:101160000E942A3069017A0191E0C91AD108E10888
:10117000F1088FEFC816D104E104F10411F00CF06E
:101180007FC183E09091B100987F892B8093B1005B
:10119000CFC080930101EDE0F2E094919D839F3FE9
:1011A00009F479CF913041F150F0923009F446C002
:1011B0009D8197FD70CF61E00E94F0078ECF14BC37
:1011C00015BC94B5926094BD95B5916095BD282FDE
:1011D00030E0F901EA5CFD4FE491F0E0EE0FFF1F13
:1011E000E25FFD4F45915491F901E85EFD4FE491B6
:1011F000E09388041D826BCF1092800010928100D2
:10120000909181009860909381009091810091600D
:1012100090938100282F30E0F901EA5CFD4FE491C2
:10122000F0E0EE0FFF1FE25FFD4F45915491F90191
:10123000E85EFD4FE491E093870449CF1092B0003F
:101240001092B1009091B00092609093B000909194
:10125000B10091609093B100282F30E0F901EA5C71
:10126000FD4FE491F0E0EE0FFF1FE25FFD4F45916F
:1012700054915093920440939104F901E85EFD4F1C
:10128000E491E093930423CF9FEFC916D104E104C6
:10129000F10409F00CF46DC068E478EE81E090E0B0
:1012A000A50198010E942A3069017A0181E0C81ADB
:1012B000D108E108F1089D81992309F4FAC08FEF64
:1012C000C816D104E104F10411F00CF0FBC0EFC02A
:1012D00064E274EF80E090E0A50194010E942A305E
:1012E00069017A0181E0C81AD108E108F10885E0B6
:1012F0009FEFC916D104E104F10409F008F442CFCC
:1013000062E17AE780E090E0A50194010E942A3032
:1013100069017A0181E0C81AD108E108F108E5C045
:1013200081E09D8191112ECF95B5987F892B85BD48
:101330002FEF3FEFA901411451046104710409F03A
:1013400043C09D81913009F45EC0923009F46DC0B4
:101350009111A1CEC7BC20938D0430938E0440938D
:101360008F045093900480916E00826080936E0091
:1013700092CE82E0D6CFB12CA12C60E072E18AE758
:1013800090E0A50198010E942A3069017A0181E06C
:10139000C81AD108E108F108C114D10491E0E906A6
:1013A000F10404F591E08D81813011F68091810086
:1013B000887F892B809381002FEF3FEFA901411493
:1013C000510461047104F9F0D801AA0FBB1FA301F5
:1013D00092010E94F32C28EE33E040E050E00E949E
:1013E0000830AFCF68E478EE81E090E0A501980185
:1013F0000E942A3069017A0181E0C81AD108E10807
:10140000F10893E0D0CFD0928900C0928800209359
:10141000890430938A0440938B0450938C04809108
:101420006F00826080936F0036CEC092B30020932D
:1014300094043093950440939604509397048091BC
:10144000700082608093700026CE84E09FEFC91602
:10145000D104E104F10409F008F466CFC980DA8010
:10146000EB80FC808AE0F594E794D794C7948A9542
:10147000D1F781E0C81AD108E108F10885E054CF1E
:1014800068E478EE81E090E0A50198010E942A309E
:1014900069017A0181E0C81AD108E108F1089FEFDB
:1014A000C916D104E104F10411F00CF011CF84E06D
:1014B00069CE83E09FEFC916D104E104F10409F07D
:1014C0000CF432CF62E17AE780E090E0A50194016C
:1014D0000E942A3069017A0181E0C81AD108E10826
:1014E000F1089D81992309F4B0CF86E09FEFC916DA
:1014F000D104E104F10409F008F444CEC980DA8093
:10150000EB80FC809AE0F594E794D794C7949A9581
:10151000D1F781E0C81AD108E108F10887E032CE9E
:1015200082E030CE1F93CF93DF93182FEB0161E061
:101530000E94F007209739F460E0812FDF91CF916E
:101540001F910C949607CF3FD10511F461E0F5CFC0
:10155000E12FF0E0E750FE4FE491E33031F140F449
:10156000E130B1F0E230E1F0C038D1057CF7E4CFF2
:10157000E73029F1E83059F1E430B1F7809180008B
:10158000806280938000D0938B00C0938A0004C057
:1015900084B5806884BDC7BDDF91CF911F91089548
:1015A00084B5806284BDC8BDF7CF8091800080681B
:1015B00080938000D0938900C0938800EDCF809104
:1015C000B00080688093B000C093B300E5CF8091F5
:1015D000B00080628093B000C093B400DDCF8E5025
:1015E000806480937C0080917A00806480937A008C
:1015F00080917A0086FDFCCF8091780090917900EF
:1016000008953FB7F8948091830490918404A09149
:101610008504B091860426B5A89B05C02F3F19F01C
:101620000196A11DB11D3FBFBA2FA92F982F882762
:10163000BC01CD01620F711D811D911D42E0660F3D
:10164000771F881F991F4A95D1F708958F929F920F
:10165000AF92BF92CF92DF92EF92FF926B017C012B
:101660000E94010B4B015C01C114D104E104F1049F
:10167000B9F00E94010B681979098A099B09683E33
:1016800073408105910580F321E0C21AD108E10879
:10169000F10888EE880E83E0981EA11CB11CE4CFEF
:1016A000FF90EF90DF90CF90BF90AF909F908F9082
:1016B0000895089520913204260F3327331F2132D5
:1016C0003105ECF420915804FC0190E080E02430D6
:1016D00069F082E00895A09132042191AC01405F4D
:1016E0005B4FA40FB52FB11D2C930196861798F36D
:1016F00080913204680F6093320480E0089581E0A5
:1017000008951092580481E080935A04109259046D
:1017100061E082E10E94960761E083E10E94960702
:10172000E9EBF0E080818E7F808380818D7F8083F4
:1017300088E48093B80085E48093BC000895CF933B
:10174000DF9391E090930F048823B9F0C091B80023
:10175000D091BA008091BC008A7B8093BC0060E08D
:1017600082E10E94960760E083E10E9496070E9452
:10177000810BD093BA00C093B800DF91CF91089548
:10178000089508950895E091070480910604E817EC
:1017900030F4F0E0EA51FC4F808190E008958FEF43
:1017A0009FEF089590910704809106042FEF3FEF7B
:1017B000981748F4E92FF0E0EA51FC4F208130E01F
:1017C0009F5F90930704C90108958091060490914A
:1017D0000704891B990B0895CF92DF92EF92FF9235
:1017E0000F931F93CF93DF937C01CB018A0120914C
:1017F000E503222389F0EB016B01C40ED51ECC1545
:10180000DD0569F06991D701ED91FC910190F081BE
:10181000E02DC7010995F3CF642F0E945A0BC80130
:10182000DF91CF911F910F91FF90EF90DF90CF90BC
:101830000895CF93DF931F92CDB7DEB769832091D0
:10184000E5032223F9F020910804203258F021E02A
:1018500030E0FC013383228390E080E00F90DF9141
:10186000CF91089580910904E82FF0E0EB53FC4FED
:10187000998190838F5F809309048093080481E0AD
:1018800090E0ECCF61E0CE0101960E945A0BF7CFB9
:1018900020919A0430919B042817390771F4909194
:1018A000980480919904981741F0E0919804F0E031
:1018B000EB57FC4F808190E008958FEF9FEF0895E4
:1018C000EF92FF920F931F93CF93DF93DC015C960F
:1018D000ED90FC905D97E114F10479F481E090E0E3
:1018E00013969C938E93129790E080E0DF91CF91B6
:1018F0001F910F91FF90EF9008955196ED91FC91FB
:10190000529750968C915097982F90950FB75E965E
:101910002C915E97122F127021FD6095F894208112
:10192000112319F1282B2083E7012197F1F728E0F3
:10193000462F50E0308160FF1AC0382B3083E7011A
:101940002197F1F7BA0175956795215089F7112311
:1019500081F08081892380830FBF5C968D919C915B
:101960000197F1F781E090E0C1CF2923DCCF392343
:10197000E5CF9081892BEFCF20919A0430919B0481
:101980002817390771F4809199042091980490E008
:10199000805C9F4F821B910960E470E00E94F42FED
:1019A000089590E080E0089520919A0430919B047E
:1019B00028173907B9F490919804809199049817E1
:1019C00089F0E0919804F0E0EB57FC4F8081209182
:1019D000980430E02F5F3F4F2F73332720939804F4
:1019E00090E008958FEF9FEF0895FC0181E09191C1
:1019F000992321F09A30D9F78F5FF9CF0895009796
:101A000011F00C94F50C80E00895972F882381F055
:101A1000E62FF72F21E03191332341F06E2F9F2FD6
:101A20003A30C9F7821721F02F5FF5CF60E090E0E0
:101A3000862F0895DC011A96ED91FC9130E020E0AC
:101A40000994FF920F931F93CF93DF93EC0100E56E
:101A50001FEFFF24F394F98E40E0602FCE010E9427
:101A60001A0D898D8170110F182B0F5F063599F7AC
:101A70008C8D803131F120F48823E9F081501FC032
:101A8000803241F18033D1F78A8D81131EC01C8EC4
:101A90002B8D86E091E012278150212F292321F4FC
:101AA000990F8111F9CF86E0805BDF91CF911F9173
:101AB0000F91FF9008958A8D811739F082E18C8F04
:101AC00004C08A8D811303C01C8E80E0EECF1B8F73
:101AD00082E2F5CF8B8D8113F7CF80E3F0CFDC016D
:101AE0001696ED91FC9130E020E040E069E1099428
:101AF000DC011696ED91FC9130E020E040E068E1D9
:101B000009949A01DC011696ED91FC91462F67E14C
:101B10000994EF92FF920F931F93CF93DF931F923D
:101B2000CDB7DEB77C018B01D8016C91673129F10B
:101B300050F46531A0F40F90DF91CF911F910F9178
:101B4000FF90EF9008956A3118F16E3FA1F7F80108
:101B50004181498369E2C7010E941A0D0BC0F80157
:101B600041814983D7011696ED91FC9130E020E048
:101B7000C70109950E5F1F4FD7CFF8018181898377
:101B8000AE014F5F5F4F61E0C7010E94810DF2CF50
:101B90000F5F1F4FD7011696ED91FC9130E020E0CA
:101BA00040E0C7010995C0CF462FDC011696ED91A4
:101BB000FC9130E020E066E10994462FDC011696A6
:101BC000ED91FC9130E020E065E10994EF92FF9205
:101BD0000F931F93CF93DF93EC01042F79016D30A6
:101BE00009F446C050F46B30C9F1693009F49FC064
:101BF0006A3009F465C080E046C06E3009F452C016
:101C00006F3099F70E94780DF7011381110F110FB2
:101C1000110F6C89160F60E4CE010E94DD0D612F5B
:101C200062956F706061CE010E94DD0D612F6F7053
:101C3000CE010E94D40DF7016481606BCE010E9439
:101C4000D40DF701408151816281660F660F660FE6
:101C5000CE010E94810D0150A1F72EC06FE171E00D
:101C6000442311F06AE171E0CE010E94890D0AC09F
:101C7000411110C063E171E00E94890DE881F98192
:101C800082898C8B81E0DF91CF911F910F91FF9022
:101C9000EF9008956CE071E00E94890DE881F98170
:101CA0008389EFCF0E94780D61E8CE010E94DD0D9F
:101CB000602FCE010E94D40DCE010E946F0DE2CFA5
:101CC000EA85FB8530E020E040E068E2CE0109953E
:101CD000EE81FF8130E020E040E064E1CE01099533
:101CE00041E06BE4CE010E941A0DE881F981448144
:101CF00069E2CE010E941A0D40E06BE4CE010E9421
:101D00001A0DE881F981448169E2CE010E941A0D21
:101D100041E06BE4CE010E941A0DE881F981458112
:101D200069E2CE010E941A0D64E271E09DCF89E55F
:101D300091E0998388831C8AA5CFDC011896ED91E8
:101D4000FC9130E020E040E069E10994DC01189664
:101D5000ED91FC9130E020E040E068E10994CF9300
:101D6000DF931F92CDB7DEB76983BE016F5F7F4FF0
:101D70000E942E060F90DF91CF910895EF92FF926F
:101D80001F93CF93DF93EC01162F7A010E94A60ECA
:101D900060E4CE010E94AF0EE885F9859701412FDE
:101DA00067E1CE010995CE01DF91CF911F91FF90A0
:101DB000EF900C949D0EEF92FF921F93CF93DF93C1
:101DC000EC01142F7901663181F138F4643109F4A2
:101DD0004BC0653179F080E022C06831C9F150F123
:101DE0006931C9F780918403882391F1CE010E9463
:101DF0009D0E2EC080918403882319F0CE010E948D
:101E00009D0ECE010E94A60E60E0CE010E94AF0E94
:101E1000612FCE010E94AF0E81E080938403DF9199
:101E2000CF911F91FF90EF900895642F0E94AF0E05
:101E300081E0F5CF80918403882319F0CE010E94C0
:101E40009D0EA701193138F4612FCE010E94BE0EFC
:101E500010928403EDCF68E1CE010E94BE0E1851AE
:101E600088E1E80EF11CEDCF8E898F3F11F488E7F1
:101E70008E8BE885F9859701412F64E1CE01DF91D2
:101E8000CF911F91FF90EF900994FC016623D9F147
:101E90006A30C9F1808D811125C06C3F48F085E022
:101EA000808F617070E0738B628B2EEF3FEF29C0E3
:101EB000683F20F084E0808F6370F4CF603F20F0B3
:101EC00083E0808F6770EECF603E20F082E0808FED
:101ED0006F70E8CF262F30E0603C98F081E0808F73
:101EE0006F71E0CF8150808F2289338996E0220F75
:101EF000331F9A95E1F76F73262B338B228B811159
:101F0000D4CFC90108952FEF3FEFFBCF0F93DC0132
:101F1000DE963C91DE97431BD496ED91FC9109959A
:101F20000F910895CF93DF93FC01A081B18182AD21
:101F3000982F990F990F990F95AF50969C915097A4
:101F4000903208F09FE1990F990F990F94AF23AD4C
:101F5000922F990F990F990F96AF51963C915197E7
:101F6000682F620F7727771F3617170614F4832F11
:101F7000821B97AFEF01C05CDF4F880F880F880F7F
:101F8000890F8883219680EF888354968D919C9148
:101F90005597813F910508F48883EE5BFF4F569675
:101FA0008C918083DF91CF9108950F93FC01EB5BBF
:101FB000FF4F308131965081451730F4301738F09B
:101FC000041728F080E013C03017D0F3FBCFFC01DA
:101FD000ED5BFF4F30818C5B9F4FFC018081681768
:101FE00040F481E0321718F081E0261758F70F917E
:101FF00008953217C8F3E6CF2F923F924F925F9227
:102000006F927F928F929F92AF92BF92CF92DF9208
:10201000EF92FF920F931F93CF93DF93EC014C014C
:1020200083E4880E911CF4011082329720805E01B7
:10203000F4E4AF0EB11CF50120823FAC6E01F5E473
:10204000CF0ED11CF6013082359740807E01F6E438
:10205000EF0EF11CF70140823496108132976080B8
:102060003196708032975080012F262D472D652D97
:10207000CE010E94D50FCD58DF4F811114C01882B8
:10208000DF91CF911F910F91FF90EF90DF90CF9054
:10209000BF90AF909F908F907F906F905F904F9088
:1020A0003F902F90089581E08883552011F0F4012E
:1020B0005082621410F4F5016082371410F4F601B6
:1020C00070821415E8F6F7011083DACF87589F4F16
:1020D000FC01608308950F93DC01802FFD01ED5812
:1020E000FF4F90819923E9F12223D9F1223020F08A
:1020F000023079F56F5F621B082F0170FD0180FDD2
:1021000032C0EB5BFF4F8081481758F131968081D8
:10211000481738F53297908131978081260F26171E
:10212000F0F46917D8F42FEF290F8217D0F468174D
:1021300008F4682F291708F4922F961BD696ED9174
:10214000FC91D7970480F581E02D292FCD010995C9
:1021500008C0033089F64F5F421BCECF682F691746
:1021600020F30F910895ED5BFF4F80816817C8F34E
:10217000319680816817A8F73296908131978081D7
:10218000240F241778F4491760F42FEF290F8217D2
:1021900040F7481708F4482F291708F4922F941B8A
:1021A000CDCF482F4917E8F6F2CF213039F020F093
:1021B000223031F0840F0895860F0895841B08950E
:1021C000861B0895213039F020F0223031F0861B33
:1021D0000895840F0895860F0895841B08955F92D3
:1021E0006F927F928F929F92AF92BF92CF92DF9227
:1021F000EF92FF920F931F93CF93DF935C01162F03
:10220000642EEC01C15BDF4FDC80ED804C0189E77F
:10221000880E911CFE80FD18C12EF11608F4CF2CFB
:102220005B800C85202F4E2D6D2D8A810E94D5104C
:10223000782E202F4E2D6D2D852D0E94E210482FD7
:10224000662071F08A85F40180832C2D672DC501ED
:102250000E946B101F1548F01F19E394D12CDACFA0
:1022600089858111F7CF8B85EECF1D0D1C83ED8203
:10227000DF91CF911F910F91FF90EF90DF90CF9062
:10228000BF90AF909F908F907F906F905F900895D8
:10229000DC0118964C911897ED91FC9111972491BF
:1022A00030E0042E02C0359527950A94E2F7842F7A
:1022B000860F883068F031961196FC93EE93E49186
:1022C00098E0941B01C0EE0F9A95EAF72E2B8850E8
:1022D00018968C938FEF9FEF01C0880F6A95EAF7ED
:1022E0008095822308950F931F93CF93DF938C01E2
:1022F000EC01C15BDF4F798368831886FC01E05AEB
:10230000FF4F6081CE010E9448118E83F801EF5982
:10231000FF4F6081CE010E9448118F83F801E7587A
:10232000FF4F90819A8781E0911180E08B87DF9148
:10233000CF911F910F910895CF93C62F0E944811FE
:10234000C15021E030E001C0220FCA95EAF7821B9C
:10235000CF910895FC01E60FF11D849190E0982F34
:1023600088273196E4918E0F911D0895EF92FF9288
:102370000F931F93CF93DF93FC01E55BFF4F208109
:102380003181295E3F4F6F3F710509F048F5613695
:102390007105D8F081599F4FFC0180819181280FF0
:1023A000391FC9010196FC014491442309F447C037
:1023B000F90144914617170671F40196DF91CF9108
:1023C0001F910F91FF90EF9008956134710548F3CC
:1023D00083599F4FE1CFFC018491280F311DE1CF3C
:1023E0008B01FC01EF58FF4FC081D181C20FD31F79
:1023F0007E0160E0C7010E94AA11C80FD91F62E0E8
:10240000C7010E94AA11F4E0EF0EF11C801791079A
:1024100080F3FE01849190E0982F88273196E49113
:102420008E2B009761F00817190719F4CE01039657
:10243000C5CFFE013296E491CE0FD11DEACF90E0D8
:1024400080E0BCCF2F923F924F925F926F927F922B
:102450008F929F92AF92BF92CF92DF92EF92FF92B4
:102460000F931F93CF93DF93EC016C0125E5C20E10
:10247000D11CF6011082188E8B01312C212C7C018D
:10248000FFE4EF0EF11C2C0122E6420E511C3C0130
:1024900087E7680E711C5E01E3E6AE0EB11C4E01CB
:1024A000F4E68F0E911CF80161918F01EA81FB81A6
:1024B000CE0109958F3F980721F18E3F2FEF9207AC
:1024C00091F3BC01CE010E94B6110097C1F0BC018E
:1024D000CE010E947311F2016081C7010E949C111C
:1024E000F3018083F5016081C7010E949C11F40112
:1024F0006081C7010E949C11382E280ED4CF80E045
:10250000FBCFF6018081882331F0C958DF4F9881D5
:10251000890F280E2318822DDF91CF911F910F91E3
:10252000FF90EF90DF90CF90BF90AF909F908F90F3
:102530007F906F905F904F903F902F9008958F9273
:102540009F92AF92BF92CF92DF92EF92FF920F9342
:102550001F93CF93DF93EC01062F142F7901FC0119
:10256000E55AFF4F8081813009F46CC008F460C0E7
:10257000823009F471C0833009F478C0FE01EF5A4B
:10258000FF4F008331961083B701CE010E94B61130
:10259000009709F4D5C07E012FE4E20EF11CBC01C6
:1025A000CE010E947311FE01EA5AFF4FC0803C9693
:1025B0006081C7010E949C11982EFE01ED59FF4FCA
:1025C0006081C7010E949C11B82EFE01EC59FF4F9B
:1025D0006081C7010E949C11A82EF7010681101688
:1025E0000CF086C0D484BC0CB1942D2D4B2D692DDC
:1025F00082810E94D510182FF70182832D2D4B2D3B
:10260000692D83810E94E210482FF7018383F1E056
:10261000DF1609F47BC0DF1698F122E0D21609F428
:102620007BC083E0D81609F482C0042F212F2CC070
:10263000FE01E35BFF4F0190F081E02DCE01099593
:10264000180F9CCFFE01E35BFF4F0190F081E02D5E
:10265000CE010995081B92CFFE01E35BFF4F01906D
:10266000F081E02DCE010995181B88CFFE01E35BB8
:10267000FF4F0190F081E02DCE010995080F7ECF2C
:10268000202F210F0C2D080F612FCE010E94D50F96
:10269000882371F1F701148215828E01025A1F4FAF
:1026A0004E01FFE58F0E911CF8016081C7010E9469
:1026B0004811B82EF4016081C7010E944811D82E3C
:1026C00040E06B2DCE010E94EF1041E06D2DCE0158
:1026D0000E94EF1061E0C7010E9448118111F0CF04
:1026E000F70185818C1504F3C758DF4F82858883F5
:1026F0008A2DDF91CF911F910F91FF90EF90DF9086
:10270000CF90BF90AF909F908F900895DC1821E0FC
:10271000210F080F1D0DB8CF81E0982F901B21E0ED
:10272000210F8C1901E0040F480F190FADCF2C2D8C
:10273000210F842F801B01E0040F41E0480FA4CF3C
:1027400080E0D7CFAF92BF92DF92EF92FF920F93CC
:102750001F93CF93DF93EC01162F042F188E79016E
:10276000D12C5C012BE5A20EB11CF70161917F0118
:10277000EA81FB81CE0109958F3F9807E9F08E3FF2
:102780002FEF920791F39C01402F612FCE010E9401
:102790009F12F5019081913049F030F0923041F074
:1027A000933041F0D80EE1CF180FFCCF080FFACFCD
:1027B000181BF8CF081BF6CF8D2DDF91CF911F91FD
:1027C0000F91FF90EF90DF90BF90AF900895CF935F
:1027D000DF93EC016BAFEEA9FFA90190F081E02D32
:1027E0000995EEA9FFA90280F381E02DCE01DF91CA
:1027F000CF910994AF92BF92CF92DF92EF92FF9266
:102800000F931F93CF93DF9300D000D01F92CDB7CB
:10281000DEB78C01DC01DA96AC90DA97DB96EC90AF
:10282000DB97ED91FC91B188FE2CD12CC12CD80105
:10283000ED91FC9111978089D8962D913C911C8245
:10284000FD828B83B8E08B9FC00111248C9DA00179
:102850008D9D500D9C9D500D1124240F351F3A83E2
:102860002983D8011496ED91FC919E012F5F3F4F73
:1028700041E06FE0C8010995F3948F2D8E198A15F8
:1028800028F4BFEFCB1ADB0AFB1488F20F900F90ED
:102890000F900F900F90DF91CF911F910F91FF90AC
:1028A000EF90DF90CF90BF90AF900895DF92EF92BE
:1028B000FF920F931F93CF93DF937C01162FC42FAA
:1028C000D22ED42FD00F262F2D0D0D2F0E94D50FD5
:1028D000811110C0DF91CF911F910F91FF90EF9068
:1028E000DF90089500E02D2D4C2F612FC7010E942D
:1028F0006B10CF5FDC13F6CFEDCF2F923F924F924C
:102900005F926F927F928F929F92AF92BF92CF927F
:10291000DF92EF92FF920F931F93CF93DF9300D03C
:1029200000D01F92CDB7DEB79D838C83A62E642E78
:10293000F22E4801FC01E55AFF4F10823E970190AC
:10294000F081E02D0995680E85E49FE0EC81FD8122
:1029500093838283B801CF010E942212582EB12C9A
:102960008F1520F4BF2CB81AB6945F2CEC81FD8132
:10297000EB58FF4FF080162D1F19EC81FD81EA58AE
:10298000FF4F8081F81A61E08C819D810E94661062
:10299000CC2041F00F2D252D412F6A2D8C819D815A
:1029A0000E945614DD24D394DA0CD50CF12FFE19B5
:1029B000F9838FEF8A0D811B8A83852D8F198E5F96
:1029C0008B837F2C7A18710E7518EA2CE094EF0C2B
:1029D000E10EE518E9811E1331C060E0C11001C0AD
:1029E00061E08C819D810E94661085E49FE0EC810E
:1029F000FD81938382836B2D6A0D9401462DCF0157
:102A00000E94A21361E08C819D810F900F900F9026
:102A10000F900F90DF91CF911F910F91FF90EF904A
:102A2000DF90CF90BF90AF909F908F907F906F90EE
:102A30005F904F903F902F900C9466105A80510EEB
:102A400044244A94410E2B802F0C82E0382E3F0CF8
:102A5000072D0D0D2D2D442D652D8C819D810E94FE
:102A6000D50F882339F100E0222D442D652D8C816E
:102A70009D810E946B1081E08315E0F4FF2091F0AE
:102A800001E02F2D412F652D8C819D810E946B10BF
:102A90002F2D412F6FEF6D0D8C819D810E946B104A
:102AA0001E2D1D0D00E0222D412F652D8C819D8155
:102AB0000E946B10D394F32C142D8CCF7F928F92A5
:102AC0009F92AF92BF92CF92DF92EF92FF920F93BD
:102AD0001F93CF93DF934C01D62F742EF22E580103
:102AE000C8010E94FF0CD82EC0E0DC1211C0DF9C90
:102AF000802D1124DF91CF911F910F91FF90EF90C6
:102B0000DF90CF90BF90AF909F908F907F9008956F
:102B1000B5018C2F0E94050DC12CE12C8C01272DB5
:102B20004D2F60E0C4010E947D14DF0DCF5FDDCF2B
:102B3000CF92EF920F931F93CF93DF93D62FC09135
:102B4000E306CF5F9091E406C91BEE24E39484135F
:102B5000E12CB901842F0E94050D009711F48FEB31
:102B600091E02091AF062250CE2C8C014D2F61E0D8
:102B70008EE696E00E947D148C2FDF91CF911F91FD
:102B80000F91EF90CF900895CF92DF92EF92FF9246
:102B90000F931F93CF93DF93EC01962F683109F4C5
:102BA0004BC0B901993130F49431C9F0973189F0B3
:102BB00080E006C0993109F461C09032C9F781E024
:102BC000DF91CF911F910F91FF90EF90DF90CF9009
:102BD000089550E081E595E00E94EC0BF0CF8C85E4
:102BE0009D85AE85BF85892B8A2B8B2B71F4E8815F
:102BF000F981A585B0E020EA36E841E050E00E9486
:102C0000F32C6C877D878E879F8710920704109224
:102C1000060410920904109208040E94810B80ECB3
:102C20009BE0909331048093300481EC9BE090937F
:102C3000350480933404C3CF2C853D854E855F8554
:102C400060E074E284EF90E00E9408302051310986
:102C50004109510956954795379527952093B80016
:102C60008E8990E09595879591E09093E503809308
:102C700083031092090410920804A1CFD091080494
:102C8000D13208F093C0C09183030E94010B6B0105
:102C90007C0180915804811164C082E080935804C3
:102CA00081E080935A048FEF8093570410927C0444
:102CB000D0937B04A5ECB3E0EBE5F4E080E0D8131F
:102CC0007CC010927D0480917D04CC0FC82BC093F2
:102CD0007D0480915904813009F073C01092590429
:102CE0000E94010B6B017C0180917D048093BB00ED
:102CF00080910B0490910C04A0910D04B0910E04EE
:102D0000892B8A2B8B2B99F00E94010B00910B04CD
:102D100010910C0420910D0430910E046C197D0962
:102D20008E099F090617170728073907D8F18091E0
:102D3000BC0083FDD9CF85EC8093BC000E94010BC1
:102D40006B017C01809158048230E9F18091570435
:102D50008F3F61F180915704803241F18091570497
:102D600025C080910B0490910C04A0910D04B091AA
:102D70000E04892B8A2B8B2B09F48BCF0E94010B1D
:102D800000910B0410910C0420910D0430910E045D
:102D90006C197D098E099F0906171707280739073F
:102DA00008F077CF80910A040E949F0B10920904CB
:102DB000109208041092E50302CF9D9191938F5FCA
:102DC0007ECF85EEB9CF80910B0490910C04A09139
:102DD0000D04B0910E04892B8A2B8B2B09F4B2CFF2
:102DE0000E94010B00910B0410910C0420910D0422
:102DF00030910E046C197D098E099F09061717077B
:102E00002807390708F09ECFCDCF0F931F93CF939C
:102E1000DF938C01C62F642FCC32E8F4CA3208F05D
:102E200041C0C83271F1C93209F442C080E0C034F7
:102E3000D0F1CF73F801EC0FF11D868D8F3F91F12A
:102E4000C031E0F00E946D0721E0892B09F420E0F9
:102E5000F801218F27C0CD3289F140F384EB8C0F2C
:102E6000823020F7CF73C00FD12FD11D8E8D41112D
:102E700033C061E00E94F00760E08E8D0E949607EB
:102E800011C0025E1F4FD0E0F80181918F018F3F8A
:102E900031F061E0D03108F062E00E94F007DF5FBE
:102EA000D63191F781E0DF91CF911F910F91089575
:102EB00070E090E080E00E94260BF4CF85E090E087
:102EC000433010F082E090E0880F991F880F991F1F
:102ED00005970197F1F7E6CF62E00E94F007E2CF95
:102EE000FC018081811102C00C94010B813071F4CE
:102EF0008FB7F89420917F04309180044091810431
:102F0000509182048FBFCA01B90108958230D9F768
:102F10002FB7F89460917F047091800480918104B0
:102F2000909182042FBF28EE33E040E050E00E94F1
:102F30000830E9CF0F931F93CF93DF93EC010E94EA
:102F400070170C811D812E813F81601B710B820BDC
:102F5000930B088519852A853B85601771078207C1
:102F60009307E0F0CE010E9470176C837D838E83FF
:102F70009F838981882391F09A81992379F09F3FDB
:102F800039F4EC85FD85DF91CF911F910F91099464
:102F90008B81891718F48F5F8B83F3CFDF91CF91EB
:102FA0001F910F910895CF93DF93C8E5D6E02C8150
:102FB0003D8150E040E06A817B8188810E942C083D
:102FC00064E670E080E090E00E94260B8881DF914B
:102FD000CF910C94C407DC01ED91FD918081ED91BE
:102FE000FD919081ED91FD916C9163708E2309F0BC
:102FF00064609F2309F06860E8E0F8E1E60FF11DE6
:10300000659565956D936D917D918D919D910994D7
:1030100023C01AC012C016C010C01EC009C014C000
:1030200013C006C019C009C00DC007C00DC014C030
:1030300062507040804090400BC0615070408040B2
:10304000904006C06E5F01C06F5F7F4F8F4F9F4FF4
:103050009E938E937E936E93089580915D059091DB
:103060005E050C94EB1780915F05909160050C94C0
:10307000EB17CF92DF92EF92FF920F931F93CF93B4
:10308000DF936C01EB017B01E40EF51E10E000E024
:10309000CE15DF0561F06991D601ED91FC910190AB
:1030A000F081E02DC6010995080F191FF1CFC80165
:1030B000DF91CF911F910F91FF90EF90DF90CF9014
:1030C0000895CF92DF92EF92FF920F931F93CF93C9
:1030D000DF93EC016C0124E0C20ED11CFC01E1582D
:1030E000FF4F0190F081E02DC60109958E3FEFEF73
:1030F0009E07C8F48E010E571F4F7E01F1E8EF0EB8
:10310000F11C9C01F8014081F7016081C6010E9419
:103110009F12C15ADF4F98819130A9F078F0923018
:10312000A1F09330B9F081E090E0DF91CF911F9151
:103130000F91FF90EF90DF90CF900895F70190816D
:10314000890F8083F0CFF801FACFF7019081981BA7
:10315000892FF7CFF801FACF90E080E00895CF9261
:10316000DF92EF92FF920F931F93CF93DF9300D0E4
:10317000CDB7DEB769834A83880F991F0091560641
:1031800010915706000F111FE0E0F6E09F0120505C
:1031900036402017310714F41192F8CF2981FC0131
:1031A000E050FA4F21838A81808360E08091540649
:1031B0000E9496071016110604F501501109F80136
:1031C000E050FA4FE080D0905206C090500688E060
:1031D000F82E6E2D661F6627661F8C2D0E9496079F
:1031E000EE0C61E08D2D0E94960760E08D2D0E940F
:1031F0009607FA94F110EDCFDDCF61E0809154068F
:103200000F900F90DF91CF911F910F91FF90EF9052
:10321000DF90CF900C949607EF92FF921F93CF937D
:10322000DF93209156063091570682179307B4F426
:10323000EC0123E0880F991F2A95E1F79C01205F9C
:10324000394F790111E0F70111927F0140E0612FC0
:10325000CE010E94AF181F5F1930A9F7DF91CF91FF
:103260001F91FF90EF9008950F931F93CF93DF93DB
:103270008C01EB01FC01808191810097E1F0688174
:10328000798161157105A9F0428153812C813D81BD
:103290004217530770F00E9455328C819D81F801CE
:1032A000958384831D821C82DF91CF911F910F91A2
:1032B00008950E94FF3088819981F801918380836D
:1032C0008A819B81938382838C819D819583848372
:1032D000198218821B821A82E5CFCF93DF93EC010B
:1032E00088819981009711F00E94FF30198218821D
:1032F0001D821C821B821A82DF91CF910895FC01EE
:1033000080819181009711F00C94FF3008950F9304
:103310001F93CF93DF93EC0188819981009759F037
:103320002A813B812617370730F081E0DF91CF916A
:103330001F910F9108958B016F5F7F4F0E9488311D
:10334000009759F0998388831B830A832C813D81E0
:10335000232B59F7FC011082E8CF80E0E7CFEF92F2
:10336000FF920F931F93CF93DF936115710541F483
:1033700080E0DF91CF911F910F91FF90EF90089522
:1033800041155105B1F07B01EC010C811D81040F49
:10339000151FB8010E948719882351F328813981AC
:1033A0008C819D81B701820F931F0E9455321D832E
:1033B0000C8381E0DECFEF92FF920F931F93CF93A8
:1033C000DF93EC017B01198218821B821A821D8215
:1033D0001C82FB0101900020E9F731978F01061B49
:1033E000170BB8010E948719811109C0CE01DF9126
:1033F000CF911F910F91FF90EF900C946D191D8349
:103400000C83B70188819981DF91CF911F910F9132
:10341000FF90EF900C945532EF92FF920F931F9311
:10342000CF93DF9300D000D000D0CDB7DEB78C01B2
:103430007B0169EB71E0CE0101960E94DB19F70177
:103440004481558160817181CE0101960E94AF193E
:10345000811104C0CE0101960E946D1942E050E036
:103460006DEB71E0CE0101960E94AF19811104C08D
:10347000CE0101960E946D194D815E8169817A812C
:1034800081EE95E00E943706CE0101960E947F19D9
:103490006FEB71E0C8010E94DB1988EEE82E83E033
:1034A000F82E61E070E080E090E00E94260B81EE53
:1034B00095E00E94BC0C892B79F081EE95E00E948A
:1034C000D40C89831A8241E050E0BE016F5F7F4FC8
:1034D000C8010E94AF19EBCFF1E0EF1AF10809F72C
:1034E000C80126960FB6F894DEBF0FBECDBFDF91A0
:1034F000CF911F910F91FF90EF900895FB010190E4
:103500000020E9F73197AF01461B570BDC01ED9125
:10351000FC910280F381E02D09948F929F92AF92EB
:10352000BF92EF92FF920F931F93CF93DF93CDB78C
:10353000DEB7A1970FB6F894DEBF0FBECDBF7C01FA
:10354000FA01CB0119A2223008F42AE08E010F5DA6
:103550001F4F822E912CB12CA12CBF01A5019401EB
:103560000E940830F901CA016A300CF5605DD8018B
:103570006E938D01232B242B252B79F790E080E08F
:10358000109721F0BD01C7010E947E1AA1960FB6C7
:10359000F894DEBF0FBECDBFDF91CF911F910F9189
:1035A000FF90EF90BF90AF909F908F900895695CCF
:1035B000DECF85ED8093BC0080910B0490910C04CC
:1035C000A0910D04B0910E040796A11DB11D23E03A
:1035D000B695A795979587952A95D1F72091BC0028
:1035E00024FD03C010925804089540910B0450919B
:1035F0000C0460910D0470910E04452B462B472B53
:1036000069F30097A105B10541F025E32A95F1F78B
:1036100000000197A109B109E1CF80910A040C943F
:103620009F0BFC01A081B18150962C9182AD38E0B6
:10363000839FC0011124289FA001299F500D1124B0
:1036400070E060E080AD91AD0C944E321F93CF934B
:10365000DF93EC010E94FA131BAD8AAD180FE881CD
:10366000F9818189181768F0EC81FD8130E020E054
:1036700040E060E1CE01099580E0DF91CF911F919C
:103680000895FE01E658FF4F8081882319F0CE018E
:103690000E94111B612FCE010E94E71381E0EDCF44
:1036A000CF93DF93EC01FC01E658FF4F8081882324
:1036B00019F0CE010E94111B60E0CE01DF91CF9185
:1036C0000C94E7135F926F927F928F929F92AF92CA
:1036D000BF92CF92DF92EF92FF920F931F93CF93FF
:1036E000DF935C01562EF42E4901FC01708010928C
:1036F000C9068CE296E09093BC068093BB0660906E
:10370000E3068091E406681A8FEB91E00E94F50CC5
:10371000F62D869DF00D1124C091B006FC1708F01F
:103720005EC0CF1BC69505E41FE0109371060093A1
:1037300070066FEB71E08EE696E00E942212D82FA1
:10374000109371060093700660EC71E08EE696E0CF
:103750000E942212E82E1093710600937006B401A5
:103760008EE696E00E9422128D0FEF9C800D1124B0
:10377000D091AF068D17A8F5D81BD69585E4C82E35
:103780008FE0D82E83E0E82EEF18F12CC70180558A
:103790009B4F7C018EE696E00E94501B0FEB11E0E0
:1037A000262D4091AF066C2F8EE696E00E945E15A6
:1037B0000C2F080FD0927106C09270062FEB31E0EB
:1037C000402F6D2F8EE696E00E94A2131D2F180F3A
:1037D000972D80E3943638F094568F5FFBCFC0E08E
:1037E000A2CFD0E0CBCF8093B00480E39A3018F022
:1037F0009A508F5FFBCF8093B10480E391113CC05E
:103800008093B2041092B304D0927106C0927006F5
:103810009701402F612F8EE696E00E94A213D0926E
:103820007106C0927006612F680F9401402F8EE6DA
:1038300096E00E94A2138EE696E00E94261B182FA7
:103840008111ACCF8EE696E00E94210D8035B9F44F
:10385000F501708211E0812FDF91CF911F910F91BF
:10386000FF90EF90DF90CF90BF90AF909F908F90A0
:103870007F906F905F90089591508F5FBFCF833599
:1038800051F3813511F0843531F4751410F411E0E1
:10389000170D712E7FCF823511F0853599F6152DD4
:1038A0007720B9F31FEFF4CF2F923F924F925F92A0
:1038B0006F927F928F929F92AF92BF92CF92DF9240
:1038C000EF92FF920F931F93CF93DF9300D000D01E
:1038D0001F92CDB7DEB74C015B013A013D832C83CB
:1038E0001092C9068CE296E09093BC068093BB06CA
:1038F000D090E3068091E4069D2D981B9983C40126
:103900000E94FF0CFF24F394A114B10411F092E083
:10391000F92EF80EC3010E94FF0C8F0D9981899F2B
:10392000802D11248D5F9091B006891708F04DC04D
:10393000981B892F8695D80EDA82F12C85E4482EC3
:103940008FE0582E8EE696E00E94501B840129815C
:103950004091AF066A818EE696E00E945E15DA809D
:10396000D80EA114B10469F0C12CE12C850120917D
:10397000AF064D2D60E08EE696E00E947D148981B1
:10398000D80E830129814091AF066D2D8EE696E019
:103990000E945E158D0D8D5F8B83D090AF068C815C
:1039A0009D810E94FF0CC82E212C312CC2100FC00B
:1039B000822D880F820D880F8650830D8D1508F09B
:1039C00066C0D81AD694312C37C080E0B4CF6C8151
:1039D0007D81822D0E94050D5092710640927006E5
:1039E000BC018EE696E00E942212380E2394DECFB0
:1039F0006C817D81832D0E94050DCC24C394F3102E
:103A0000C12CEE24E3948C0120E04B816D2D8EE6D9
:103A100096E00E947D146C817D81832D0E94050DAE
:103A20005092710640927006BC018EE696E00E94AC
:103A300022128A5FD80E33942310DACF8EE696E0F6
:103A40000E94261BD82E811181CF8EE696E00E941F
:103A5000210D8035F1F4DD24D394DF0C8D2D0F90F2
:103A60000F900F900F900F90DF91CF911F910F91BA
:103A7000FF90EF90DF90CF90BF90AF909F908F908E
:103A80007F906F905F904F903F902F900895D12C32
:103A90009ACF833519F3982F9B7F913531F4F394A6
:103AA000F31408F44FCFF12C4DCF823511F084354B
:103AB00061F6F11001C0F32CFA9444CF5F926F923B
:103AC0007F928F929F92AF92BF92CF92DF92EF92AE
:103AD000FF920F931F93CF93DF93C82F7B01B0907A
:103AE000E306B3948091E406B81A8CE994E00E944E
:103AF000F50C882EC111C1508091B006882009F4C0
:103B000068C08350990B6B2D70E00E94F42FA62E95
:103B1000A818C7010E94FF0C982EC81710F0CFEF0D
:103B2000C80FCA2CD12C5C2E5A185394CA1508F40D
:103B3000512C8CE296E09093BC068093BB067724D0
:103B4000739466246A94690C8EE696E00E94501B7A
:103B5000D091E3068820D1F00CE914E02B2D4091A0
:103B6000AF066D2F8EE696E00E945E15D80F80910D
:103B7000E406472D481B4B194D0F00E02091AF067E
:103B800060E08EE696E00E946B10DD5F10E0A1120F
:103B900028C08EE696E00E94261BD82F8111D8CF30
:103BA0008EE696E00E94210D803529F5D1E0DC0FEC
:103BB0008D2FDF91CF911F910F91FF90EF90DF90AC
:103BC000CF90BF90AF909F908F907F906F905F90BD
:103BD00008956B2D0E94E82FA82E9BCFC0E05D2E8C
:103BE000B3CF452D410F97016D2F8C2F0E94981553
:103BF000D80F1F5FCCCF8335D9F2982F9B7F91359B
:103C000089F4CF5FC91550F78C2F90E0019696018B
:103C1000250D311DD72DD11BDC0F82179307FCF624
:103C2000D52DDDCF823519F0843509F0B9CFC1111A
:103C300007C0C62DD92DD11B191588F2D0E0CFCFE2
:103C4000C150D52DC51558F6DC2FC9CF2F923F9204
:103C50004F925F926F927F928F929F92AF92BF929C
:103C6000CF92DF92EF92FF920F931F93CF93DF9348
:103C70008EE696E00E94501B2224239484E0382E86
:103C80009AE0892ED4E1CAE51EE128E2B22E32E3A1
:103C9000A32E4CE3942E2092C60662E08EE696E0B8
:103CA0000E9466100BE020E840E060E08EE696E0BF
:103CB0000E9456143092EB068092EC066CED71E097
:103CC0008CE994E00E94C82B6CE974E08AE696E0E7
:103CD0000E947E1A1092EB06D093EC0666E271E029
:103CE0008CE994E00E94C82B6CE974E08AE696E0C7
:103CF0000E947E1AC093EB06D093EC0640917203AB
:103D000050E070E060E02AE08AE696E00E948D1ABA
:103D10001092EB061093EC0667E171E08CE994E0F9
:103D20000E94C82B6CE974E08AE696E00E947E1A35
:103D3000C093EB061093EC064091730350E070E0E3
:103D400060E02AE08AE696E00E948D1A62EC71E05B
:103D50008AE696E00E947E1A4091740350E070E07B
:103D600060E02AE08AE696E00E948D1A1092EB0647
:103D7000B092EC0668E071E08CE994E00E94C82BF8
:103D80006CE974E08AE696E00E947E1AC093EB0626
:103D9000B092EC06409175035091760370E060E0BC
:103DA0002AE08AE696E00E948D1A1092EB06A09215
:103DB000EC0669EF70E08CE994E00E94C82B6CE996
:103DC00074E08AE696E00E947E1AC093EB06A09209
:103DD000EC06C0907703D0907803E0907903F090E0
:103DE0007A03A7019601C701B6010E94AE2E66ECC8
:103DF00071E081111BC026013701E89477F82FEF9D
:103E00003FEF4FE75FE7C301B2010E94AE2E811181
:103E10005DC02FEF3FEF4FE75FE7C301B2010E94A4
:103E2000CF2B18160CF052C06AEC71E08AE696E0CF
:103E30000E947E1A1092EB069092EC066AEE70E0F9
:103E40008CE994E00E94C82B6CE974E08AE696E065
:103E50000E947E1AC093EB069092EC06E0917B03E1
:103E600030917C0390917D0380917E03CE2ED32EE2
:103E7000E92EF82EF7FEA8C06DE28AE696E00E94D1
:103E8000611844275527BA014C195D096E097F094D
:103E90002AE08AE696E00E948D1A8EE696E00E945D
:103EA000261B8111F8CEDF91CF911F910F91FF90CA
:103EB000EF90DF90CF90BF90AF909F908F907F90CA
:103EC0006F905F904F903F902F9008952FEF3FEFAE
:103ED0004FE75FE4C701B6010E94592E18161CF483
:103EE0006EEC71E0A3CF2FEF3FEF4FE75FECC70120
:103EF000B6010E94CF2B87FDF3CF20E030E0A9016F
:103F0000C701B6010E94CF2B87FF09C06DE28AE688
:103F100096E00E946118F7FAF094F7F8F0942AE01E
:103F200037ED43EA5BE3C701B6010E94452D2B0143
:103F30003C010E942A2E6B017C010E94D42B9B0124
:103F4000AC01C301B2010E94442D2B013C012AE0C7
:103F5000B701A6018AE696E00E948D1A6EE28AE613
:103F600096E00E94611820E030E040E251E4C30195
:103F7000B2010E94352C2B013C010E942A2E6B01BC
:103F8000F12CE12C2AE0B701A6018AE696E00E9416
:103F90008D1AC701B6010E94D42B9B01AC01C3014D
:103FA000B2010E94442D20E030E040E251E40E9442
:103FB000352C0E942A2EAB0170E060E02AE08AE6F0
:103FC00096E00E948D1A36CF2AE04E2F532F692F8C
:103FD000782F5FCF2F923F924F925F926F927F9296
:103FE0008F929F92AF92BF92CF92DF92EF92FF9209
:103FF0000F931F93CF93DF93CDB7DEB762970FB6C2
:10400000F894DEBF0FBECDBF8EE696E00E94210D74
:10401000182F482F50E070E060E02AE084EB94E035
:104020000E948D1A6DEB71E084EB94E00E947E1A81
:10403000103579F50E94D3176CED71E08CE994E0AE
:104040000E94C82B62ED71E0809100010E945E1D0C
:10405000182F809300010E94D31712501730B8F424
:10406000E12FF0E0EA5CFF4D0C9449303D20CA207E
:104070002B21922176223E23902324E032E04BE153
:1040800052E06FEB71E087E292E00E94541C0E94C4
:10409000D31780916906823008F090C3F8948EE5BA
:1040A00096E00E94EB1780916506789480937203E6
:1040B00083E00E946D0721E0892B09F020E0209326
:1040C000730382E00E946D0721E0892B09F020E054
:1040D0002093740384E10E94EF0A90937603809307
:1040E000750385E10E94EF0ABC01990F880B990BBB
:1040F0000E94D62B20E030E44CE950E40E94352C9D
:1041000020E030E040E251E40E94B12D609377035B
:10411000709378038093790390937A032FB7F89480
:1041200060917F0470918004809181049091820459
:104130002FBF28EE33E040E050E00E9408308901B4
:104140009A0100937B0310937C0340937D0330938B
:104150007E0310927F0310928003109281031092CD
:10416000820362960FB6F894DEBF0FBECDBFDF911B
:10417000CF911F910F91FF90EF90DF90CF90BF9064
:10418000AF909F908F907F906F905F904F903F90F7
:104190002F9008951D861F82198265E371E08CE9D6
:1041A00094E00E94C82B67E372E08E2D0E945E1D92
:1041B000E82E0E94D31783E0E816A9F18E15A8F027
:1041C000E1E0EE1609F463CFF2E0EF12E6CF2FEB59
:1041D00031E042E06AE0CE010D960E94621B6D85DF
:1041E00070E089E00E94920AD8CF84E0E81639F1A5
:1041F000E5E0EE12D2CF29E432E04FEB51E064E586
:1042000072E0CA010E94541C813039F670E060E00F
:1042100089E00E94920A70E060E08AE00E94920ABF
:1042200070E060E016C02FEB31E042E06AE0CE01C2
:1042300007960E94621B6F8170E08AE0D3CF2FEB5C
:1042400031E042E06AE0CE0101960E94621B698182
:1042500070E08BE0C7CF84E0898314E669E371E006
:104260008CE994E00E94C82B68E572E08F2D0E94D3
:104270005E1DF82E0E94D317F3E0FF1699F1FF158B
:1042800038F181E0F81609F402CFE2E0FE12E6CF41
:104290008EE00E946D0761E0892B09F060E08EE0FE
:1042A0000E94960729E432E04FEB51E06AE772E0A2
:1042B000CA010E94541C813089F68EE00E946D076D
:1042C00061E0892B09F060E08EE00E949607C6CF7E
:1042D000F4E0FF16F1F085E0F812C0CF8EE00E9406
:1042E000C407BCCF6981619FB001112420E030E098
:1042F000A9018EE00E942C0829E432E04FEB51E046
:104300006AE772E0CA010E94541C813009F0A6CF0E
:10431000E5CF2FE732E042E068E2CE0101960E944D
:10432000621BDCCF8AE0898319E160E471E08CE9EB
:1043300094E00E94C82B65E872E08C2D0E945E1DFF
:10434000C82E0E94D317EFEFEC0DE73070F7F0E0C6
:10435000E455FE4D0C9449304720B321BC21E521A2
:104360000C2233225A222FEB31E042E06AE0CE01E8
:1043700001960E94621BD9CF6981619FB00111240F
:104380008AE00E94920A70E060E089E00E94920A4E
:1043900070E060E086E00E94920A70E060E085E0F4
:1043A0000E94920A29E432E04FEB51E06AE772E0A2
:1043B0008CEA92E00E94541C813009F0B6CF70E084
:1043C00060E08AE00E94920AB0CF70E060E08AE08C
:1043D0000E94920A6981619FB001112489E00E94C4
:1043E000920A70E060E086E00E94920A70E060E06D
:1043F00085E00E94920A29E432E04FEB51E06AE73F
:1044000072E082EB92E00E94541C813009F08DCF63
:1044100070E060E089E0D6CF70E060E08AE00E9462
:10442000920A70E060E089E00E94920A6981619FCF
:10443000B001112486E00E94920A70E060E085E0FD
:104440000E94920A29E432E04FEB51E06AE772E001
:1044500088EB92E00E94541C813009F066CF70E036
:1044600060E086E0AFCF70E060E08AE00E94920AF0
:1044700070E060E089E00E94920A70E060E086E00F
:104480000E94920A6981619FB001112485E00E9417
:10449000920A29E432E04FEB51E06AE772E08EEBDA
:1044A00092E00E94541C813009F03FCF70E060E040
:1044B00085E088CF29E432E04FEB51E064E572E01B
:1044C000CA010E94541C813009F02FCF70E060E0D7
:1044D0008AE00E94920A70E060E089E00E94920AFD
:1044E00070E060E086E00E94920AE0CF198290E8D6
:1044F000892E912C2AE0222E312C67EC71E08CE978
:1045000094E00E94C82B64EC72E08B2D0E945E1D2B
:10451000B82E0E94D317E2E0BE16F1F0EB1528F09A
:10452000F1E0BF1609F4B3CDE8CF83E0B81609F483
:104530005DC0E4E0BE12E1CF29E432E04FEB51E090
:1045400064E572E0CA010E94541C8130B1F690E02B
:1045500080E00E940C19D1CF2FEB31E043E06FEFE8
:10456000CE0101960E94621BC98090E080E00E940B
:104570000C1900E016E0A12CD12CF12CE12C6A2DB5
:1045800070E090E080E00E94D42B9B01AC0160E0E1
:1045900070E080E291E40E945E2E2B013C01A39426
:1045A000809156069091570618161906CCF4C7014B
:1045B000B6010E94D42BA30192010E94B12D0E944A
:1045C000232ECB01B1010E94F42FFC01E95BFE4FC9
:1045D0004491F801408B6A2D90E080E00E94AF1872
:1045E0000F5F1F4FF8E0AF12CACF87CF29E432E048
:1045F0004FEB51E062EE72E0CA010E94541C813020
:1046000009F07BCF90E080E00E940C1980E0682EDA
:1046100086E0782E11E0512C412C62E370E080E0BE
:1046200090E00E94260B809156069091570618162E
:10463000190684F4F3014089C401042C02C0959545
:1046400087950A94E2F7482B408B612F90E080E039
:104650000E94AF1862E370E080E090E00E94260BB9
:10466000FFEF4F1A5F0A88E048165104B1F6EFEFEA
:104670006E1A7E0A1F5F193071F63FCF6FEB71E043
:10468000CE010D960E94DB196FEC71E08CE994E08D
:104690000E94C82B67EE72E08D2D0E945E1DD82E01
:1046A0000E94D317F2E0DF16A9F1FD1540F081E07A
:1046B000D812EACFCE010D960E947F19E8CCE3E034
:1046C000DE1659F1F4E06EE073E0DF12DDCFCE01CB
:1046D00007960E94DB19BE01695F7F4FCE010196EC
:1046E0000E940C1ABE016F5F7F4FCE010D960E9493
:1046F0003419CE0101960E947F19CE0107960E94BF
:104700007F192FEB31E0A901B9018D859E850E94AB
:10471000541CBACF61E073E0DACF66E073E0D7CF24
:104720006FEB71E0CE010D960E94DB1964ED71E034
:104730008CE994E00E94C82B63E173E0802F0E9413
:104740005E1D082F0E94D317033091F150F5013000
:1047500009F4B0CF69E373E0023041F7CE01079668
:104760000E94DB19BE01695F7F4FCE0101960E9456
:104770000C1ABE016F5F7F4FCE010D960E94341957
:10478000CE0101960E947F19CE0107960E947F19E3
:104790002FEB31E0A901B9018D859E850E94541C43
:1047A000C5CF043041F068E473E00530B9F2BECF04
:1047B0006EE373E0D3CF63E473E0D0CFF89473CCAF
:1047C0001F920F920FB60F9211242F933F934F9386
:1047D0005F936F937F938F939F93AF93BF93EF9369
:1047E000FF938091940490919504A0919604B091C8
:1047F0009704892B8A2B8B2BD1F190919304E09114
:104800009104F0919204808189278083809194049F
:1048100090919504A0919604B091970418161906EA
:104820001A061B069CF48091940490919504A09123
:104830009604B09197040197A109B109809394045B
:1048400090939504A0939604B0939704FF91EF91F1
:10485000BF91AF919F918F917F916F915F914F9198
:104860003F912F910F900FBE0F901F901895809140
:1048700001010E94C407EACF1F920F920FB60F9258
:1048800011242F933F934F935F936F937F938F9355
:104890009F93AF93BF93EF93FF9384EB94E00E94B9
:1048A000B506FF91EF91BF91AF919F918F917F914D
:1048B0006F915F914F913F912F910F900FBE0F908D
:1048C0001F9018951F920F920FB60F9211242F93DD
:1048D0008F939F93EF93FF93E091C404F091C504ED
:1048E0008081E091CA04F091CB0482FD1BC09081CD
:1048F0008091CD048F5F8F732091CE04821741F099
:10490000E091CD04F0E0EC54FB4F958F8093CD0403
:10491000FF91EF919F918F912F910F900FBE0F906C
:104920001F9018958081F4CF1F920F920FB60F92AF
:1049300011242F933F938F939F93AF93BF938091B5
:104940007F0490918004A0918104B0918204309101
:104950007E0423E0230F2D3758F50196A11DB11DCC
:1049600020937E0480937F0490938004A09381041D
:10497000B09382048091830490918404A091850473
:10498000B09186040196A11DB11D8093830490937C
:104990008404A0938504B0938604BF91AF919F9146
:1049A0008F913F912F910F900FBE0F901F901895F0
:1049B00026E8230F0296A11DB11DD2CF1F920F92A0
:1049C0000FB60F9211242F933F934F935F936F93E2
:1049D0007F938F939F93AF93BF93EF93FF93E09158
:1049E0000401F09105010995FF91EF91BF91AF91FD
:1049F0009F918F917F916F915F914F913F912F91F7
:104A00000F900FBE0F901F9018951F920F920FB628
:104A10000F9211242F933F934F935F936F937F9344
:104A20008F939F93AF93BF93EF93FF93E091020116
:104A3000F09103010995FF91EF91BF91AF919F9183
:104A40008F917F916F915F914F913F912F910F9037
:104A50000FBE0F901F9018951F920F920FB60F92D6
:104A600011242F933F934F935F936F937F938F9373
:104A70009F93AF93BF93EF93FF938091B900887F8B
:104A8000803609F44AC0F0F5883209F4A7C018F559
:104A9000803109F49BC0B8F4882309F4F9C0883048
:104AA00009F494C0FF91EF91BF91AF919F918F91C5
:104AB0007F916F915F914F913F912F910F900FBE1A
:104AC0000F901F901895883109F488C0803251F7F3
:104AD0008093570414C0803409F49DC040F480339F
:104AE000B9F38833F9F68093570485ECB0C080356C
:104AF00009F485C0883509F496C0883499F60E9477
:104B0000D91AD0CF883909F48CC038F5883729F004
:104B100050F4883611F0803729F683E080935804EA
:104B20001092560457C0883809F47BC0803919F0B8
:104B3000803809F0B7CF80915604803208F071C0F8
:104B4000E091560481E08E0F809356048091BB0063
:104B5000F0E0EA5CFB4F80833DC0803B39F0E0F43D
:104B6000803A09F479C0883A09F09CCF84E08093B8
:104B700058041092330410923204E0913004F09102
:104B8000310409958091320481110FC081E0809336
:104B900032041092100409C0803C09F4A6CF883C6E
:104BA00009F4A3CF883B09F07DCFE091330481E085
:104BB0008E0F80933304F0E0E05FFB4F80818093A1
:104BC000BB00909133048091320429C080917D0410
:104BD0008093BB0085EC8093BC0064CF90917C04F3
:104BE00080917B04981758F5E0917C0481E08E0F4A
:104BF00080937C04F0E0E55AFB4F8081E9CFE0919F
:104C00007C0481E08E0F80937C048091BB00F0E0F7
:104C1000E55AFB4F808390917C0480917B04981728
:104C2000C8F285E8D8CFE0917C0481E08E0F8093B4
:104C30007C048091BB00F0E0E55AFB4F80838091BB
:104C40005A0481115CCF81E08093590484EA8093F7
:104C5000BC001092580426CF85EC8093BC001092C3
:104C6000580480915604803230F4E0915604F0E00C
:104C7000EA5CFB4F10826091560470E0E0913404CE
:104C8000F091350486E394E00995109256040ACF1A
:104C90001092570434CF1F920F920FB60F92112427
:104CA0002F933F934F935F936F937F938F939F9334
:104CB000AF93BF93EF93FF93E0919A04F0919B041D
:104CC000309749F0A685B7858585968D91FF14C0EC
:104CD0009C918923A1F4FF91EF91BF91AF919F9196
:104CE0008F917F916F915F914F913F912F910F9095
:104CF0000FBE0F901F9018959C91892361F7A3898F
:104D0000B4899C918589809589238C93868997891C
:104D10000197F1F7608D718DA685B785558538E0CF
:104D200020E0CB010197F1F7822F90E095958795D0
:104D3000282F4C91452309F02068315091F7868D3A
:104D400081FD20958091990490E001968F739927B9
:104D500030919804381799F0A0919904B0E0AB57BE
:104D6000BC4F2C9380939904828D938D0197F1F71A
:104D7000A389B4898C919589892B8C93ACCF868D2E
:104D80008160868FF1CFCF93DF931092B70410929A
:104D9000B60488EE93E0A0E0B0E08093B80490936E
:104DA000B904A093BA04B093BB0425E731E0309373
:104DB000B5042093B40425EC30E03093C104209373
:104DC000C00424EC30E03093C3042093C20420ECF0
:104DD00030E03093C5042093C40421EC30E03093DC
:104DE000C7042093C60422EC30E03093C90420931A
:104DF000C80426EC30E03093CB042093CA04109210
:104E0000CD041092CE041092CF041092D0041092D0
:104E10005405109253058093550590935605A09321
:104E20005705B093580587E891E090935205809319
:104E300051051092FC061092FD061092FE0610928B
:104E4000FF061092000710920107109202071092BD
:104E5000030710920407109205071092060710929C
:104E600008071092070781E08093FB061092EE0678
:104E70001092EF061092F0061092F1061092F206D0
:104E80001092F3061092F4061092F5061092F606B0
:104E90001092F7061092F8061092FA061092F90690
:104EA0008093ED0610926D0610926C068FEB95E0E4
:104EB0009093EA068093E9061092EB061092EC06B6
:104EC000109286068BEA91E090936B0680936A06B7
:104ED00010926F0610926E061092830610927A0658
:104EE00010927B0610927C0610927D068FEF8093C5
:104EF000840680938806ECE8F6E082EA96E0CFEF3D
:104F0000C1938E179F07E1F786EE9DE0909373069D
:104F1000809372068BED9EE09093750680937406E5
:104F200084EC95E1909377068093760685E097E18F
:104F3000909379068093780630E020E040E069E0C5
:104F40008EE696E00E94E60D1092BA061092B9061F
:104F500089EC95E09093A3068093A20681E695E004
:104F60009093A7068093A60681E08093A8061092EE
:104F7000A9061092C6061092E6068093E706809373
:104F8000E80683EB91E09093A5068093A4068EE655
:104F900096E00E94920F1092B5061092B706C09349
:104FA000B606C093B806E091A406F091A50602806B
:104FB000F381E02D8EE696E009958CE296E09093E1
:104FC000BC068093BB061092C906C093970683E186
:104FD0008093980682E18093990662E082E00E94C5
:104FE000F00762E083E00E94F007E8E3F2E0E4917A
:104FF000F0E0EE0FFF1FE45DFD4FA591B491B0937B
:105000005F06A0935E06EAE1F2E0449140936206F7
:10501000E9E3F2E0E491F0E0EE0FFF1FE45DFD4F05
:10502000C591D491D0936106C0936006EBE1F2E0A4
:10503000E491E09363061092650610926606109262
:105040006706109268062BE33FE1C9010197F1F76B
:105050009C91842F892391E009F490E08881E823D2
:1050600009F092602EE536E09093640630935E0579
:1050700020935D058DE298E19093030180930201F6
:10508000809169008C7F816080936900E89A81E05B
:10509000809369063093600520935F0583E398E170
:1050A000909305018093040180916900837F84605F
:1050B00080936900E99A82E080936906109259060C
:1050C00082E390E090935D0680935C068EE080938F
:1050D000580688EB91E090935B0680935A0661E056
:1050E0008EE00E94F007C1E1D0E0D0935106C0935A
:1050F00050068FE090E0909353068093520680E133
:1051000090E0909355068093540681E090E0909350
:1051100057068093560661E081E10E94F00761E046
:10512000809152060E94F00761E0809154060E942F
:10513000F00761E0809154060E949607D0935106D3
:10514000C0935006E0E1F6E080E596E011928E17FC
:105150009F07E1F7D0E0C0E0809156069091570696
:10516000C817D9073CF540E06FE0CE010E94AF18A8
:105170008091560690915706C817D9072CF447E03E
:105180006BE0CE010E94AF1840E069E0CE010E94C2
:10519000AF18CE010E940C198091560690915706C7
:1051A000C817D9072CF440E06CE0CE010E94AF187C
:1051B0002196D2CF1092E4051092E30588EE93E099
:1051C000A0E0B0E08093E5059093E605A093E705A5
:1051D000B093E80589E991E09093E2058093E105B9
:1051E0001092F8051092F7051092FA051092F90541
:1051F0001092FC051092FB051092FE051092FD0521
:105200006091FF056E7F6D7F6093FF05669561700D
:1052100081E0682787E00E94960761E087E00E94AE
:10522000F007EFE1F2E0E491E093F105EDE3F2E065
:10523000E491F0E0EE0FFF1FE25FFD4F8591949146
:105240009093F3058093F20560E088E00E94F007F8
:105250008091FF0581FD04C061E088E00E9496070F
:1052600088E08093ED05E0E2F2E0E491E093EE0562
:10527000EEE3F2E0E491F0E0EE0FFF1FE45DFD4F9E
:10528000859194919093F0058093EF05DF91CF91F4
:105290000895789484B5826084BD84B5816084BDAE
:1052A00085B5826085BD85B5816085BD80916E00C4
:1052B000816080936E0010928100809181008260F5
:1052C0008093810080918100816080938100809132
:1052D00080008160809380008091B1008460809321
:1052E000B1008091B00081608093B00080917A001D
:1052F000846080937A0080917A00826080937A0043
:1053000080917A00816080937A0080917A00806831
:1053100080937A001092C100E091C404F091C5041A
:1053200082E08083E091C004F091C1041082E0919A
:10533000C204F091C3048FEC80831092CC04E091FE
:10534000C804F091C90486E08083E091C604F0911E
:10535000C704808180618083E091C604F091C70416
:10536000808188608083E091C604F091C7048081C9
:1053700080688083E091C604F091C70480818F7DAE
:1053800080831092FC051092FB051092FA05109292
:10539000F9051092F8051092F7058DE991E09093C8
:1053A000FE058093FD059091ED05963108F047C00C
:1053B0002DEB30E03093F8052093F7052BE931E031
:1053C0003093FA052093F9052CE231E03093FC0587
:1053D0002093FB052091680084E0983048F031E08C
:1053E0009E3008F430E081E001C0880F3A95EAF77A
:1053F000822B809368002DE630E0983050F02BE649
:1054000030E09E3030F02CE630E0963110F030E0A5
:1054100020E03093F5052093F405292F30E09830F3
:1054200008F072C181E001C0880F9A95EAF7809375
:10543000F6058091FD059091FE050197F1F78091A9
:10544000FB059091FC05892B49F1E0919A04F091BC
:105450009B0425E0E13EF20709F1309739F0A3897A
:10546000B4899C918589809589238C938091FF05CF
:105470008E7F8093FF05109299041092980481EE1C
:1054800095E090939B0480939A04E091F405F09149
:10549000F50580819091F605892B808384E08093C7
:1054A0009C0683E080939D0682E080939E068FEFAA
:1054B0008093A0068093A10680939F06E0917206D8
:1054C000F091730630E020E040E06AE08EE696E07E
:1054D00009958EE696E00E94501B8EE696E00E94AB
:1054E000261B8111FACF60E08EE696E00E94E7135A
:1054F000E0917206F091730630E020E040E06BE04E
:105500008EE696E009958091B9069091BA068A5484
:10551000924009F495C0EAE4F2E0F093BA06E09311
:10552000B906E491E093CA06EBE4F2E0E491E0937B
:10553000CB06ECE4F2E0E491E093CC06EDE4F2E09B
:10554000E491E093CD06EEE4F2E0E491E093CE0640
:10555000EFE4F2E0E491E093CF06E0E5F2E0E491DD
:10556000E093D006E1E5F2E0E491E093D106E2E5D4
:10557000F2E0E491E093D206E3E5F2E0E491E09317
:10558000D306E4E5F2E0E491E093D406E5E5F2E049
:10559000E491E093D506E6E5F2E0E491E093D606E7
:1055A000E7E5F2E0E491E093D706E8E5F2E0E49184
:1055B000E093D806E9E5F2E0E491E093D906EAE564
:1055C000F2E0E491E093DA0661E18AE492E00E947D
:1055D000AA119093DC068093DB0663E18AE492E0F3
:1055E0000E94AA119093DE068093DD0665E18AE4AD
:1055F00092E00E94AA119093E0068093DF068091CA
:10560000B9069091BA06892BD9F08091D70680937C
:10561000E3064091D8064093E4069091E206992370
:1056200079F0913009F07DC09091D906891714F472
:105630009093E3068091DA06841714F48093E406CD
:1056400085E49FE09093EA068093E9068AEF90E074
:10565000A0E0B0E08093030790930407A0930507B0
:10566000B09306079FEF9093FD0626E23EE130934C
:1056700008072093070781E08093FC0641E050E093
:1056800060E070E04093F5065093F6066093F706ED
:105690007093F8069093EF062AEE3FE13093FA06F6
:1056A0002093F9068093EE06809156069091570656
:1056B000181619062CF46CE090E080E00E94AF18F8
:1056C00080915606909157061816190634F444E056
:1056D0006AE090E080E00E94AF1890E080E00E94D5
:1056E0000C19C0E0D0E08DEE96E00E949A178BEF87
:1056F00096E00E949A172097B1F30E94A106882392
:1057000091F30E940000EFCF9E3040F42850310901
:1057100081E001C0880F2A95EAF789CE2E50310921
:10572000F7CF3091D4062091D606082E000C990BA5
:10573000622F022E000C770B630F711D37FD7A95D7
:10574000861797071CF4320F3093E30624170CF0EA
:1057500077CF2093E40674CF89E991E09093E20536
:105760008093E10580919A0490919B04815E95401D
:1057700071F4E091F405F091F50590818091F605C2
:1057800080958923808310929B0410929A04089537
:10579000FB01DC0105900D920020E1F708950E94C5
:1057A000112C08F481E00895E89409C097FB3EF4B9
:1057B00090958095709561957F4F8F4F9F4F99235E
:1057C000A9F0F92F96E9BB279395F69587957795DC
:1057D0006795B795F111F8CFFAF4BB0F11F460FF9C
:1057E0001BC06F5F7F4F8F4F9F4F16C0882311F0F4
:1057F00096E911C0772321F09EE8872F762F05C008
:10580000662371F096E8862F70E060E02AF09A95A2
:10581000660F771F881FDAF7880F9695879597F997
:105820000895990F0008550FAA0BE0E8FEEF161631
:105830001706E807F907C0F012161306E407F50784
:1058400098F0621B730B840B950B39F40A2661F0F8
:10585000232B242B252B21F408950A2609F4A1409B
:10586000A6958FEF811D811D08950E94482C0C94F0
:10587000B92C0E94AB2C38F00E94B22C20F095235A
:1058800011F00C94A22C0C94A82C11240C94ED2C47
:105890000E94CA2C70F3959FC1F3950F50E0551FDD
:1058A000629FF001729FBB27F00DB11D639FAA2775
:1058B000F00DB11DAA1F649F6627B00DA11D661FC4
:1058C000829F2227B00DA11D621F739FB00DA11DE5
:1058D000621F839FA00D611D221F749F3327A00D9F
:1058E000611D231F849F600D211D822F762F6A2F3B
:1058F00011249F5750409AF0F1F088234AF0EE0FA0
:10590000FF1FBB1F661F771F881F91505040A9F7CC
:105910009E3F510580F00C94A22C0C94ED2C5F3F1F
:10592000E4F3983ED4F3869577956795B795F79508
:10593000E7959F5FC1F7FE2B880F911D9695879580
:1059400097F9089597F99F6780E870E060E00895FF
:105950009FEF80EC089500240A9416161706180687
:105960000906089500240A94121613061406050663
:105970000895092E0394000C11F4882352F0BB0FF4
:1059800040F4BF2B11F460FF04C06F5F7F4F8F4F57
:105990009F4F089557FD9058440F551F59F05F3F92
:1059A00071F04795880F97FB991F61F09F3F79F041
:1059B00087950895121613061406551FF2CF4695C3
:1059C000F1DF08C0161617061806991FF1CF869545
:1059D0007105610508940895E894BB276627772729
:1059E000CB0197F908950E94352DA59F900DB49F86
:1059F000900DA49F800D911D112408952F923F9228
:105A00004F925F926F927F928F929F92AF92BF92CE
:105A1000CF92DF92EF92FF920F931F93CF93DF937A
:105A2000CDB7DEB7CA1BDB0B0FB6F894DEBF0FBED7
:105A3000CDBF09942A88398848885F846E847D8424
:105A40008C849B84AA84B984C884DF80EE80FD8026
:105A50000C811B81AA81B981CE0FD11D0FB6F8949C
:105A6000DEBF0FBECDBFED010895A29FB001B39F71
:105A7000C001A39F700D811D1124911DB29F700D57
:105A8000811D1124911D08955058BB27AA270E94FB
:105A90005C2D0C94B92C0E94AB2C38F00E94B22CD7
:105AA00020F039F49F3F19F426F40C94A82C0EF43E
:105AB000E095E7FB0C94A22CE92F0E94CA2C58F326
:105AC000BA17620773078407950720F079F4A6F5E3
:105AD0000C94EC2C0EF4E0950B2EBA2FA02D0B019C
